:020000040800F2
:1000000008070020F9010008C51B0008991A00081C
:10001000C11B0008F5030008BD2500080B020008FD
:10002000000000000000000000000000CD1B0008E0
:10003000F903000800000000C91B0008D11B0008DC
:100040001502000815020008150200081502000834
:100050001502000815020008150200081502000824
:100060001502000815020008150200081502000814
:100070001502000815020008150200081502000804
:1000800015020008150200081502000815020008F4
:1000900015020008150200081502000815020008E4
:1000A00015020008150200081502000815020008D4
:1000B00015020008150200081502000815020008C4
:1000C00015020008150200081502000815020008B4
:1000D00015020008150200081502000815020008A4
:1000E0001502000815020008150200081502000894
:1000F0001502000815020008150200081502000884
:100100001502000815020008150200081502000873
:100110001502000800000000150200081502000882
:100120000000000015020008150200081502000872
:100130001502000815020008150200081502000843
:100140001502000815020008150200081502000833
:10015000150200081502000800F002F800F03CF853
:100160000AA090E8000C82448344AAF10107DA4512
:1001700001D100F031F8AFF2090EBAE80F0013F028
:10018000010F18BFFB1A43F0010318475C2500005C
:100190007C250000103A24BF78C878C1FAD85207ED
:1001A00024BF30C830C144BF04680C6070470000F1
:1001B0000023002400250026103A28BF78C1FBD870
:1001C000520728BF30C148BF0B6070471FB502F00F
:1001D00061FA1FBD10B510BD00F0D2F81146FFF74F
:1001E000F5FF02F0EDF900F0F0F803B4FFF7F2FFCD
:1001F00003BC00F0F7F800000A4880470A480047AF
:10020000FEE7FEE7FEE7FEE7FEE7FEE7FEE7FEE7C6
:10021000FEE7FEE7FEE7000004480549054A064BF5
:1002200070470000E11C0008590100080801002087
:1002300008070020080300200803002053EA020CEE
:1002400000F069802DE9F04B4FF00006002B1FBF36
:10025000B3FA83F503FA05F424FA05F65E4012BFFB
:100260001643B2FA82F502FA05F4C5F120051EBF65
:1002700022FA05FC44EA0C04203556EA044C4FEA05
:10028000144418BF641C4FF000084FF0000990425E
:1002900071EB030C39D3002919BFB1FA81F701FAC8
:1002A00007F6B0FA80F700FA07F6C7F120071EBF7D
:1002B00020FA07FC46EA0C062037B6FBF4FCA7EB55
:1002C0000507103F07F01F0BCBF120062CFA06F6AE
:1002D0000CFA0BFB44BFB3460026202FA4BF5E469A
:1002E0004FF0000B5BEA060C08BF4FF0010B19EB57
:1002F0000B0948EB0608ABFB027C06FB02CC0BFBB0
:1003000003CCC01B71EB0C01C1E70B460246414612
:100310004846BDE8F08B13B5084318BF4FF0FF30D7
:100320000146AFF30080BDE81C4070474FF000026B
:1003300000B5134694469646203922BFA0E80C50DB
:10034000A0E80C50B1F12001BFF4F7AF090728BFB6
:10035000A0E80C5048BF0CC05DF804EB890028BF32
:1003600040F8042B08BF704748BF20F8022B11F05B
:10037000804F18BF00F8012B7047704770477047D7
:10038000754600F02BF8AE4605006946534620F04E
:100390000700854618B020B5FFF73EFFBDE82040B6
:1003A0004FF000064FF000074FF000084FF0000B31
:1003B000AC46ACE8C009ACE8C009ACE8C009ACE8A0
:1003C000C00921F007018D46704710B50446AFF310
:1003D00000802046BDE81040FFF707BF0048704787
:1003E0001000002001491820ABBEFEE726000200E5
:1003F00070470000FEE7000070470000EFF3108038
:1004000072B600BFFEE70000B0B5044600F0E2F8A7
:10041000054640F20000C2F200000078611C18BFDF
:10042000044400BF00F0D6F8401BA042FAD3B0BD90
:100430002DE9F04F82B00A680191002A00F0C080D7
:1004400047F67F73C0F22F0303EA9021074600238B
:100450004FF0000B4FF0000A002500910DE000BFA7
:100460000198013502680AF1080A32FA05F10BF128
:10047000040B03F1020300F0A380012101FA05F946
:1004800012EA0900ECD001990322D1F8048002FAA3
:1004900003FC08F0030EAEF10104012C6FEA0C0618
:1004A00016D8D7F808C001990CEA060CCA6802FAF7
:1004B00003F444EA0C04BC60D7F804C0C8F3001489
:1004C0002CEA090CAC4044EA0C047C6006E000BF56
:1004D000BEF1030F02D14FF0030E27E0FC68019933
:1004E00034408A68BEF1020F02FA03F242EA0402C3
:1004F000FA601BD16FF0030202EA55020BF01C04F4
:1005000007EB0209D9F820C001990F22D1F8108019
:1005100002FA04FE2CEA0E0C08FA04F444EA0C0475
:10052000C9F82040D1F8048008F0030E3A680EFAAA
:1005300003F43240224318F4403F3A6090D042F234
:10054000000125F00302C4F2026101EB020EDEF8A5
:1005500060C00AF018040F22009EA2402CEA02029A
:1005600006FA04F42243CEF86020D1F800C0019AC4
:100570004CEA00065468E20258BF2CEA00060E60FE
:100580004A68BC4642EA0006A70258BF22EA0006B3
:100590004E60D1F88420A60342EA000758BF22EA41
:1005A0000007C1F88470D1F88020E60342EA000712
:1005B00058BF22EA0007C1F88070674650E700BFC5
:1005C00002B0BDE8F08F00001823002A08BF2823DE
:1005D000C150704740F20410C2F20000006870473A
:1005E00040F2000040F20411C2F20000C2F2000129
:1005F00000780A68104408607047000080B542F235
:100600000000C4F20200016841F48071016003201F
:1006100000F072F801F0DEFA0F2000F009F800286F
:100620001CBF012080BD00F02BF8002080BD000021
:1006300070B540F20006C2F200063178002904BF0E
:10064000012070BD044640F20800C2F200004FF4E1
:100650007A720068B2FBF1F1B0FBF1F001F05CF8E6
:100660000F2C4FF0010508D838B94FF0FF30214664
:100670000022002500F014F87460284670BD0000C8
:1006800081B040F69440C4F20260016841F0040178
:100690000160006800F004000090009801B070470D
:1006A00010B54EF60C5CCEF2000CDCF80030C3F353
:1006B000022E8EF00704042C28BF0424BEF103038D
:1006C0004FF0FF3E38BF00230EFA04F4A1439940D7
:1006D0000EFA03F39A43114300F00F0200F1604356
:1006E0000901043A03F564436244002848BF02F15B
:1006F0000C03197010BD00004EF60C51CEF2000133
:100700000A684FF6FF031A4060F30A2242F0806045
:1007100040F0FD700860704740F60C02C4F20262BF
:10072000116B01F48031814204BF002070471168D1
:1007300021F480310843106040F20800C2F200004A
:100740000068322100FB01F04DF68361C4F21B31D9
:10075000A0FB0101890C084613681B0414D4431C38
:1007600012D013681B0412D488B113681B040DD473
:1007700001280BD013681B04A0F1040302D4022843
:100780001846E9D1981C02E0013000E00138002849
:1007900004BF0320704700BF106B000414D4481C32
:1007A00012D0106B000412D489B1106B00040DD468
:1007B00001290BD0106B0004A1F1040002D402291E
:1007C0000146E9D1811C02E0013100E0013900203D
:1007D000002908BF032070472DE9F04782B0044686
:1007E000006840F6E04AC107C4F2026A0ED18107F0
:1007F00016D441071ED4010726D4C1062ED4810683
:1008000036D441063ED4C10546D458E0DAF800108B
:10081000626821F003011143CAF800108107E8D58E
:10082000DAF80010A26821F00C011143CAF8001098
:100830004107E0D5DAF80010E26821F44061114385
:10084000CAF800100107D8D5DAF80010226921F49F
:1008500040211143CAF80010C106D0D5DAF80010C3
:10086000626921F440111143CAF800108106C8D50D
:10087000DAF80010A26921F440011143CAF800100F
:100880004106C0D5DAF80010E26921F000411143B9
:10089000CAF80010C10512D5DAF80410226A21F452
:1008A00040511143B2F5405FCAF8041007D140F639
:1008B0002841C4F202610A6842F400320A608105EC
:1008C00008D4410510D4010518D4C10420D48104F2
:1008D00028D43AE0DAF80810626A21F003011143E3
:1008E000CAF808104105EED5DAF80810A26A21F01E
:1008F00018011143CAF808100105E6D5DAF8081006
:10090000E26A21F0C0011143CAF80810C104DED523
:10091000DAF80810226B21F440611143CAF808107C
:10092000810412D5DAF80810626B21F4E04111431A
:10093000B2F5005FCAF8081007D140F62841C4F2AA
:1009400002610A6842F480320A60400406D5DAF88F
:100950001000A16B00F4407989450FD16078000642
:1009600007D5DAF81000E16B20F440200843CAF8FC
:100970001000002002B0BDE8F08700BF5AF84C0C10
:1009800010F004080BD15AF84C0C40F004004AF85F
:100990004C0C5AF84C0C00F004000190019840F601
:1009A00028474FF60046C4F20267CFF6FF76B859E3
:1009B00040F00100B851FFF70DFE0546B859C007D9
:1009C00006D1FFF707FE401B0228F7D931E000BF30
:1009D000DAF81000B9F1000F20F440710FD0DAF806
:1009E0001820DAF8103043F48033CAF81030DAF8FF
:1009F000103023F48033CAF81030CAF81820A26BE4
:100A000011430122C0F2004210EA0206CAF8101097
:100A100014D0FFF7DFFD0546760041F2883700BFAE
:100A2000DAF81000304209D1FFF7D4FD401BB8427C
:100A3000F6D9032002B0BDE8F08700BFB8F1000F7F
:100A40008CD15AF84C0C20F004004AF84C0C85E785
:100A50002DE9F04381B0002800F0AA8042F200089E
:100A6000C4F202080546D8F800000C4600F00F005A
:100A700088420DD2D8F8000020F00F002043C8F8BB
:100A80000000D8F8000000F00F00A04240F0908075
:100A9000286840F628498106C4F2026909D5D9F8C8
:100AA000D811D5E9062321F0170111431943C9F8DC
:100AB000D811C00712D159F8081C286810F002029A
:100AC0001EBFAB6821F007011943430736D4030763
:100AD0003BD4002A18BF49F8081C3DE059F8281CEF
:100AE0006868022862D0032866D1890160D559F868
:100AF0000C1C01F00C010C2960D0D9F80010012267
:100B000062F31551C9F80010D9F8001021F48011D2
:100B1000C9F80010D9F8001041F48011C9F800108C
:100B2000D9F8001021F48011C9F80010D9F800108C
:100B300041F48011C9F8001040E000BFEA6821F0DC
:100B40007001030741EA020104D52A6921F4E0613A
:100B500041EA021149F8081CC00644BF686949F817
:100B6000040CD8F8000000F00F00A0420CD9D8F80F
:100B7000000020F00F002043C8F80000D8F8000063
:100B800000F00F00A04213D159F80C0C10F00C002B
:100B900032D0082836D159F8280C44F60001C0F3A9
:100BA0000050C0F2E811C1409BE000BF890305D4AA
:100BB000012001B0BDE8F0834905F9D559F80C1CB6
:100BC00021F00301084349F80C0CFFF703FD06462A
:100BD00041F2883759F80C1C686801F00C01B1EB40
:100BE000800F2FD0FFF7F6FC801BB842F2D903200C
:100BF00001B0BDE8F08300BF42F20041C0F2F40151
:100C00006FE000BFD9F80C00D9F80C10D9F800201B
:100C1000D30633D49FED3F0A02F00303022B3DD0ED
:100C2000032B3FD159F8283C44F60007C3F3005387
:100C3000C0F2E81727FA03F301EE103AB8EE411AB2
:100C400032E000BF03287FF436AFD9F8000020F46B
:100C50008010C9F80000FFF7BDFC0646D9F8000077
:100C600040023FF528AFFFF7B5FC801B0A284FF084
:100C7000030084BF01B0BDE8F083EFE7D9F810307E
:100C80009FED251AC3F3CC0300EE103AB8EE400AEC
:100C900020EE010A02F00303022BC1D19FED1F1ABF
:100CA00002E000BF9FED1B1AC2F302226FF35F2127
:100CB000013202EE102A0131B8EE422AC0F306607A
:100CC00081EE021A02EE101A0130B8EE422A30EE1E
:100CD000020A20EE010ABCEEC00A10EE101AB1FBA7
:100CE000F0F159F8080C42F2AE6200F00700C0F6CD
:100CF0000002125C40F20400C2F20000D14040F257
:100D000008020068C2F20002116001B0BDE8F043C1
:100D1000FFF78EBC00000000000000390024744B77
:100D200080B540F60040C4F20260C16911F00C01C8
:100D30000CD0082910D1016844F60002C1F300511B
:100D4000C0F2E81222FA01F153E000BF42F2004182
:100D5000C0F2F4014DE000BFD0F834C0426B836AAA
:100D6000D90615D49FED2F0A03F0030102291ED0E6
:100D700003291FD10168C1F3005E44F60001C0F2EF
:100D8000E81121FA0EF101EE101AB8EE411A13E043
:100D9000816B9FED251AC1F3CC0100EE101AB8EE5D
:100DA000400A20EE010A03F003010229E0D19FED81
:100DB0001F1A01E09FED1B1AC3F302216FF35F229C
:100DC000013102EE101A511CB8EE422A81EE021ACD
:100DD00002EE101ACCF30661B8EE422A013130EE71
:100DE000020A20EE010ABCEEC00A10EE102AB2FB85
:100DF000F1F1026A42F2AE6302F00702C0F60003AC
:100E00009A5CD14040F20802C2F200021160006A0E
:100E100042F2B662C0F30210C0F60002105C21FA82
:100E200000F080BD00000000000000390024744B79
:100E300080B540F60040C4F20260C16911F00C01B7
:100E40000CD0082910D1016844F60002C1F300510A
:100E5000C0F2E81222FA01F153E000BF42F2004171
:100E6000C0F2F4014DE000BFD0F834C0426B836A99
:100E7000D90615D49FED2F0A03F0030102291ED0D5
:100E800003291FD10168C1F3005E44F60001C0F2DE
:100E9000E81121FA0EF101EE101AB8EE411A13E032
:100EA000816B9FED251AC1F3CC0100EE101AB8EE4C
:100EB000400A20EE010A03F003010229E0D19FED70
:100EC0001F1A01E09FED1B1AC3F302216FF35F228B
:100ED000013102EE101A511CB8EE422A81EE021ABC
:100EE00002EE101ACCF30661B8EE422A013130EE60
:100EF000020A20EE010ABCEEC00A10EE102AB2FB74
:100F0000F1F1026A42F2AE6302F00702C0F600039A
:100F10009A5CD14040F20802C2F200021160006AFD
:100F200042F2B662C0F30220C0F60002105C21FA61
:100F300000F080BD00000000000000390024744B68
:100F400080B540F60040C4F20260C16911F00C01A6
:100F50000CD0082910D1016844F60002C1F30051F9
:100F6000C0F2E81222FA01F153E000BF42F2004160
:100F7000C0F2F4014DE000BFD0F834C0426B836A88
:100F8000D90615D49FED2F0A03F0030102291ED0C4
:100F900003291FD10168C1F3005E44F60001C0F2CD
:100FA000E81121FA0EF101EE101AB8EE411A13E021
:100FB000816B9FED251AC1F3CC0100EE101AB8EE3B
:100FC000400A20EE010A03F003010229E0D19FED5F
:100FD0001F1A01E09FED1B1AC3F302216FF35F227A
:100FE000013102EE101A511CB8EE422A81EE021AAB
:100FF00002EE101ACCF30661B8EE422A013130EE4F
:10100000020A20EE010ABCEEC00A10EE102AB2FB62
:10101000F1F1026A42F2AE6302F00702C0F6000389
:101020009A5CD14040F20802C2F200021160406AAC
:1010300042F2B662C0F30210C0F60002105C21FA60
:1010400000F080BD00000000000000390024744B57
:1010500040F60043C4F20263D86910F00C0002BFEE
:1010600042F20040C0F2F400704708280AD1186824
:1010700044F60001C0F30050C0F2E81121FA00F07C
:10108000704700BFD3F834C0596B9A6AD00615D4A4
:101090009FED230A02F0030002281ED003281FD16F
:1010A000186844F60003C0F30050C0F2E81323FAB6
:1010B00000F001EE100AB8EE411A13E0986B9FEDB4
:1010C000191AC0F3CC0000EE100AB8EE400A20EE68
:1010D000010A02F003000228E0D19FED131A01E09B
:1010E0009FED0F1AC2F302206FF35F21013002EE71
:1010F000100A481CB8EE422A81EE021A02EE100ACB
:10110000CCF30660B8EE422A013030EE020A20EE3F
:10111000010ABCEEC00A10EE101AB1FBF0F07047E5
:1011200000000000000000390024744B2DE9F04F4E
:1011300083B0002800F0C48040F6004BC4F2026B7C
:101140000446DBF81C10DBF82820006801F00C08CE
:10115000C10702F0030719D12078800769D5B8F1DB
:10116000000F05D0B8F10C0F08BF022F40F03481FA
:101170002069002800F0A480DBF81000616920F4E9
:10118000F81040EA0140CBF8100052E0B8F1080F27
:1011900026D16068002800F09380DBF80000A16889
:1011A00020F48810084340F48030CBF80000DBF8CE
:1011B000000044F60001C0F30050C0F2E811C14045
:1011C00040F20400C2F20000006840F20802C2F2DD
:1011D00000021160FFF72CFA002871D1207825E079
:1011E0006168B8F10C0F08BF032F1DD0DBF80000B9
:1011F000002920F4881000F0D581A268104308432C
:10120000CBF80000FFF7E6F9054600BFDBF8000069
:101210008003A1D4FFF7DEF9401B64284FF00300E0
:10122000F4D903B0BDE8F08F002949D0800700F160
:10123000D3802078000747D42078400700F19A80B7
:10124000256ACDB3B8F10C0F40F00E81012D37D0D7
:1012500040F6F047C4F20267DBF8281057F8BC0CE0
:10126000626A01F0030393422AD1A26AC1F3022108
:10127000013A914224D1E26A01466FF35F21013ABB
:1012800091421DD1216BC0F3462201398A4217D108
:10129000616BC0F3064201398A4211D1A16BC0F3E0
:1012A0000660013988420BD157F8B80CE16BC0F3E6
:1012B000CC00814240F01482002003B0BDE8F08FE2
:1012C000012003B0BDE8F08F40F6F047C4F202679A
:1012D00057F85C0C10F004090BD157F85C0C40F087
:1012E000040047F85C0C57F85C0C00F00400029016
:1012F00002984FF62846CFF6FF765BF80600C00747
:1013000012D15BF8060040F001004BF80600FFF731
:1013100061F905465BF80600C00705D1FFF75AF9E9
:10132000401B0228F6D9BDE1D7F800A0A06900282B
:1013300000F08880410140F1A481E1695FEA0A126E
:1013400040F19B810AF08052914200F096812AF090
:10135000806AC7F800A0FFF73DF90546386800012C
:1013600040F18681FFF736F9401B14284FF0030047
:10137000F4D956E740F6F047C4F2026757F85C0C20
:1013800010F004090BD157F85C0C40F0040047F84A
:101390005C0C57F85C0C00F00400019001984FF6CB
:1013A0002846CFF6FF765BF80600C00730D15BF821
:1013B000060040F001004BF80600FFF70BF9054668
:1013C0005BF80600C00723D1FFF704F9401B022891
:1013D0004FF00300F4D924E72169DBF8000000296D
:1013E00000F0CA8040F48070CBF80000FFF7F2F8FC
:1013F000054600BFDBF8000040053FF5BDAEFFF736
:10140000E9F8401B02284FF00300F3D909E700BFB9
:10141000E0683968002800F0D98021F08001084395
:101420003860FFF7D7F8054641F2883638688007FC
:1014300000F1E480FFF7CEF8401BB0424FF003000C
:10144000F4D9EEE62AF080603860FFF7C3F805466D
:101450003868000140F12A81FFF7BCF8401B1428CE
:101460004FF00300F4D9DCE6DBF8000020F08070D8
:10147000CBF80000FFF7AEF8022D054670D100BF93
:10148000DBF80060FFF7A6F8401B022800F20A8193
:10149000B001F5D404F124030ECB42F2004544F62A
:1014A0000007C0F2F405C6F30050C0F2E817266B3F
:1014B000032908BF27FA00F5DBF82800B5FBF2F78F
:1014C0004FF6E005CFF6FB75284041F200251202E9
:1014D000C0F27A05AF4288BF0C32A2F58072104389
:1014E00008434FF60061CFF6FF7140F4802001EB16
:1014F0004621CBF82800581E626B08430021CFF626
:10150000FF7101EB0241A26B0843511E40EA0161E9
:1015100040F6F040C4F2026040F8BC1CE16B41B1FF
:10152000C90040F8B81CDBF8280040F01000CBF8E8
:101530002800DBF8000040F08070CBF80000FFF7D7
:1015400049F80446DBF8000080013FF5B5AEFFF72F
:1015500041F8001B02284FF00300F3D961E600BFF9
:10156000DBF80000800175D5FFF734F8401B022836
:101570004FF00300F4D954E620F48070CBF800005B
:10158000FFF728F8054600BFDBF8000040057FF5AF
:1015900050AEFFF71FF8401B02284FF00300F3D9AD
:1015A0003FE600BFCBF80000FFF714F8054600BF88
:1015B000DBF8000080037FF5CFADFFF70BF8401B91
:1015C00064284FF00300F3D92BE600BF21F081001F
:1015D0003860386820F004003860FEF7FBFF0546ED
:1015E00041F288363868800726D5FEF7F3FF401BA6
:1015F000B0424FF00300F5D913E600BF207B41F263
:10160000883600060CD400BF3868000517D5FEF7F1
:10161000E1FF401BB0424FF00300F5D901E600BFE7
:10162000386800050BD4FEF7D5FF401BB0424FF0E1
:101630000300F5D9F5E500BF3868000642D4B9F1DA
:10164000000F7FF4FDAD57F85C0C20F0040047F864
:101650005C0CF5E5DBF828004FF6FC71CFF6F8716D
:101660000840CBF82800002003B0BDE8F08F00BF91
:101670000120FEF7C9FED4E906012AF0805242EAB1
:10168000010A40EA0A003860FEF7A4FF054600BFE1
:101690003868A16910EA410F08D1FEF79BFF401B93
:1016A0001428F5D9032003B0BDE8F08FB9F1000F7D
:1016B0007FF4C2AD57F85C0C20F0040047F85C0CD6
:1016C000BAE500BF41F2883638680005B7D5FEF7A5
:1016D00081FF401BB0424FF00300F5D9A1E500BFE8
:1016E000DBF8280020F01000CBF82800FEF772FF8E
:1016F0000546FEF76FFFA842FBD0E06BC00047F83D
:10170000B80CDBF8280040F01000CBF828000020CF
:1017100003B0BDE8F08F0000411E0020B0EB116F58
:101720001CBF012070474EF21002CEF20002516041
:101730004EF62351CEF20001F0230B70072190608A
:101740001160704790F88410012904BF022070478F
:101750002421C0F8881002681168136823F001037F
:10176000136021F000530021416613602022C0F86D
:10177000882080F88410084670470000B0B590F8C3
:101780008420012A04BF0220B0BD2422C0F8882092
:101790000268D0F864E0D2F800C01368BEF1000F10
:1017A00023F001031360936823F0606341EA0301AF
:1017B000916019D09368916842F2D66E490FC0F6D5
:1017C000000E42F2DE651EF80140C0F60005C3F3CC
:1017D0004263695CE400B4FBF1F11EF80340EB5C8A
:1017E000E500B5FBF3F301E001210123A0F86A1045
:1017F0002021A0F86830C2F800C0C0F8881000218D
:1018000080F884100846B0BDB0B590F88420012A55
:1018100004BF0220B0BD2422C0F888200268D0F89E
:1018200064E0D2F800C01368BEF1000F23F001039A
:101830001360936823F0604341EA0301916019D07B
:101840009368916842F2D66E490FC0F6000E42F2DC
:10185000DE651EF80140C0F60005C3F34263695C13
:10186000E400B4FBF1F11EF80340EB5CE500B5FBCE
:10187000F3F301E001210123A0F86A102021A0F870
:101880006830C2F800C0C0F88810002180F88410C9
:101890000846B0BD10B5B0B10446D0F8880028B9EC
:1018A000002084F88400204600F028F82420C4F8A2
:1018B00088002068016821F001010160204600F0E5
:1018C000B7FB012802D1012010BD00BFA06A00288B
:1018D0001CBF204600F080FA2168486820F4904040
:1018E0004860886820F02A008860086840F001029B
:1018F00020460A60BDE8104000F0E2BA2DE9F04150
:1019000096B0044601A808303821FEF70FFD206884
:1019100043F60001C4F20101884203D016B0BDE8CD
:10192000F08100BF012001904FF0000801A8CDF820
:101930000880FEF751FF002818BFFEF75FFD40F654
:101940008C40C4F202608169002441F480418161CD
:101950008169C4F2022401F4804111911199016856
:1019600011AD41F0020101600168022701F002019E
:10197000119111990168072641F001010160006889
:10198000294600F00100119011984FF480501190F9
:1019900004F58060CDE91278CDF850801596FEF7F9
:1019A00047FD4FF4807011A981E881012046294646
:1019B000CDE91486FEF73CFD16B0BDE8F0810000CD
:1019C0002DE9F04182B00446D0F8880020281EBFDF
:1019D000022002B0BDE8F0810D4600294FF0010061
:1019E0001CBF1746002A03D102B0BDE8F08100BF3A
:1019F0000020C4F8900021209846C4F88800FEF723
:101A0000E9FDA4F85470A4F85670A1680746B1F532
:101A1000805F01D1206918B12E4600250EE000BF7D
:101A200000260BE035F8020B21686FF35F20886217
:101A30000026B4F856000138A4F85600B4F8560051
:101A400080B12046802100223B46CDF8008000F086
:101A500045FCC8B9002EE5D016F8010B2168886254
:101A6000E7E700BF2046402100223B46CDF800803A
:101A700000F034FC2021C4F88810002818BF03208F
:101A800002B0BDE8F08100BF2020C4F88800032028
:101A900002B0BDE8F0810000FEE70000F0B587B0BD
:101AA000002640F68C400696C4F20260016840F2BF
:101AB000004441F0020101600168C4F2022401F017
:101AC0000201019101990168002241F001010160C8
:101AD00001684FF4116501F001010191019901685C
:101AE00041F00401016000684FF4116100F004004E
:101AF000019001982046FEF767FD01200295CDE98F
:101B00000306022002AD059020462946FEF790FC10
:101B10004FF4005002904FF4881704F58060294676
:101B2000CDE90376FEF784FCC020CDE9020720460C
:101B300029460496FEF77CFC07B0F0BD80B540F264
:101B4000700043F600034FF4E131C2F200000022BE
:101B5000C4F201034FF00C0CC0E90031C0E90222CD
:101B6000C0E9042CC0E90622C0E908228262FFF71E
:101B700091FE002818BFFEF741FC40F27000C2F24F
:101B800000000021FFF740FE002818BFFEF736FCDA
:101B900040F27000C2F200000021FFF7EFFD0028C4
:101BA00018BFFEF72BFC40F27000C2F20000FFF7F6
:101BB000C9FD002808BF80BDBDE88040FEF71EBCFF
:101BC000FEE70000FEE700007047000070470000DD
:101BD000FEF706BD10B540F60040C4F20260C169D0
:101BE00001F00C010C290BD008292FD1016844F613
:101BF0000002C1F30051C0F2E81222FA01F157E0ED
:101C0000816A436BC1F3022202F1010EC3F3066243
:101C10006FF35F235C1CCB0602F1010C1CD49FED1B
:101C20002D0A01F00301022925D0032926D10168DC
:101C300044F60002C1F30051C0F2E81222FA01F1A9
:101C400001EE101AB8EE411A1AE000BF42F200414C
:101C5000C0F2F4012CE000BF826B9FED1F1AC2F3AB
:101C6000CC0200EE102AB8EE400A20EE010A01F084
:101C700003010229D9D19FED191A01E09FED151A30
:101C800002EE10EAB8EE422A81EE021A02EE104A83
:101C9000B8EE422A30EE020A20EE010A01EE10CA26
:101CA000B8EE411A80EE010ABCEEC00A10EE101A1E
:101CB00040F20802C2F200021160006A42F2AE6312
:101CC00000F00700C0F60003185C21FA00F0106075
:101CD00010BD00BF00000000000000390024744B5C
:101CE00082B04EF68851CEF200010A6841F2080037
:101CF00042F470020A604FF68C41C4F20260CFF6E3
:101D0000FF71425842F020024250425802F0200235
:101D10000092009A026842F00102026002220192DF
:101D200050F8082CD20720D1019A013A0192019A69
:101D3000DAB150F8082CD20717D1019A013A019272
:101D4000019A92B150F8082CD2070ED1019A013AAB
:101D50000192019A4AB150F8082CD20705D1019A94
:101D6000013A0192019A002ADAD1026842F0020295
:101D70000260062201920268D20723D0019A013A3A
:101D80000192019A002A1CBF02685FEAC27219D050
:101D9000019A013A0192019A002A1CBF02685FEA87
:101DA000C2720FD0019A013A0192019A002A1CBF17
:101DB00002685FEAC27205D0019A013A0192019A63
:101DC000002AD8D1026822F080520260425822F0E4
:101DD0002002425002B0704780B5816ACA070DD117
:101DE0008A0716D44A071FD40A0728D4CA0631D452
:101DF0008A063AD44A0658D542E000BF0268D0F8B5
:101E00002CC0536823F4003343EA0C0353608A0761
:101E1000E8D50268D0F830C0536823F4803343EA31
:101E20000C0353604A07DFD50268D0F834C053680A
:101E300023F4802343EA0C0353600A07D6D50268D3
:101E4000D0F838C0536823F4004343EA0C035360CE
:101E5000CA06CDD50268D0F83CC0936823F48053FD
:101E600043EA0C0393608A06C4D50268D0F840C0E8
:101E7000936823F4005343EA0C0393604A0614D595
:101E80000268D0F844C05368BCF5801F23F4801367
:101E900043EA0C03536008D1D2F804C0D0F848E0FC
:101EA0002CF4C00343EA0E035360090658BF80BDFB
:101EB0000168C06C4A6822F400221043486080BD6B
:101EC000B0B582B004460020C4F89000FEF782FB53
:101ED000216805460A68120737D56FF07E4C204608
:101EE0004FF4001100222B46CDF800C000F0F6F9A7
:101EF00050B300BF206850E8000F216820F0800038
:101F000041E80002DAB1206850E8000F216820F0B3
:101F1000800041E8000292B1206850E8000F21687B
:101F200020F0800041E800024AB1206850E8000F2C
:101F3000216820F0800041E80002002ADAD1202048
:101F4000C4F8880060E000BF21680868400761D5D8
:101F50006FF07E4C20464FF4800100222B46CDF8D6
:101F600000C000F0BBF9002854D000BF206850E842
:101F7000000F216820F4907041E80002E2B120686F
:101F800050E8000F216820F4907041E800029AB1F7
:101F9000206850E8000F216820F4907041E80002AA
:101FA00052B1206850E8000F216820F4907041E899
:101FB0000002002ADAD100BF206850E8020F216831
:101FC00020F0010041E80202DAB1206850E8020F77
:101FD000216820F0010041E8020292B1206850E837
:101FE000020F216820F0010041E802024AB1206896
:101FF00050E8020F216820F0010041E80202002AA7
:10200000DAD12020C4F88C000320002184F8841049
:1020100002B0B0BD2020C4F88800C4F88C000020B5
:10202000E0662067002184F8841002B0B0BD000093
:1020300070B504462269D4E9021300680A43616955
:10204000E6690568114346F6F312CCF6FF722A40A2
:10205000114331430160416842F2004E21F4405186
:1020600019434160A269C4F2006E70451CBF216A29
:102070000A4381684FF2FF43C1F2FF131940114335
:102080008160C16AD4F824C044F2004221F00F01FB
:10209000C4F2000241EA0C019042C16210D07045C6
:1020A00016D043F60001C4F20101884240F0588086
:1020B00040F6E041C4F202610A6884A30EE000BF6A
:1020C00040F6E041C4F2026109687CA38A0805E099
:1020D00040F6E041C4F202618A6874A302F0030191
:1020E00053F82120704542F20040C0F2F4003ED087
:1020F000B6F5004F1ED1102A4FF0010100F2CD803D
:10210000DFE812F012007800CB00CB008600CB0095
:10211000CB00CB007E00CB00CB00CB00CB00CB00B4
:10212000CB00CB00840000BFFEF7FAFD002840F092
:10213000648069E0102A4FF0010100F2AE80DFE810
:1021400002F00985ACAC93ACACAC8BACACACACAC39
:10215000ACAC9100FEF7E4FD002840F07A807FE00F
:102160002022704542F20040C0F2F400C0D1911E1E
:102170004FEA7102072A4FF0010100F28E80DFE87A
:1021800002F005138C0B8C8C8C1100BFFEF7D8FE6F
:1021900030B1D4F824C007E0FEF75AFF0028F8D188
:1021A00000217AE04FF4004042F2BE61C0F6000127
:1021B00031F81C106268B0FBF1F002EB420188427A
:1021C0004FF0010169D31303984266D8010E000253
:1021D00010EB520041F100010023FEF72FF84FF6FB
:1021E0000052A0F54071C0F20F0291424FD301217D
:1021F00053E000BFFEF71CFE30B1D4F824C007E066
:10220000FEF726FF0028F8D1002146E04FF40040F9
:1022100042F2BE61C0F6000131F81C106268B0FBEA
:10222000F1F0510801EB4000B0FBF2F04FF6EF7215
:10223000A0F11001914207D84FF6F071C0F34202AD
:102240000840104423E000BF012126E0FEF7F0FD26
:1022500030B1D4F824C007E0FEF7FAFE0028F8D128
:1022600000211AE04FF4004042F2BE61C0F60001C6
:1022700031F81C104FF6EF72B0FBF1F0616800EB23
:102280005100B0FBF1F0A0F11001914204D8216897
:10229000C860002101E000BF01214FF00110A066DD
:1022A000002208466267A26770BD00BF02000000FE
:1022B0000800000004000000100000000000000002
:1022C00008000000040000001000000001000000F1
:1022D0000800000004000000100000002DE9F0419B
:1022E000044600681546C2690E461140891BB1FAC2
:1022F00081F14909A94240F0D980DDF81880B8F190
:10230000000F2BD018F101012ED100BFC16931405F
:10231000891BB1FA81F14909A94240F0C780C1691E
:102320003140891BB1FA81F14909A94240F0BE80D0
:10233000C1693140891BB1FA81F14909A94240F0D4
:10234000B580C1693140891BB1FA81F14909A942BF
:102350001CBF0020BDE8F081D8E700BFFEF73AF9C6
:102360000320BDE8F08100BF1F4608E0C06930408F
:10237000801BB0FA80F04009A84240F09780FEF739
:1023800029F9C01B404584BF0320BDE8F0812068C7
:1023900001684907EAD5C169090700F18B80C16965
:1023A0000905E3D54FF40061016200BF206850E8E1
:1023B000000F216820F4907041E80002DAB1206833
:1023C00050E8000F216820F4907041E8000292B1BB
:1023D000206850E8000F216820F4907041E8000266
:1023E0004AB1206850E8000F216820F4907041E85D
:1023F0000002002ADAD14FF6FE70CEF6FF7000BF61
:10240000216851E8021F2268014042E80213C3B16B
:10241000216851E8021F2268014042E8021383B19B
:10242000216851E8021F2268014042E8021343B1CB
:10243000216851E8021F2268014042E80213002B84
:10244000DED1E06E012824D1206850E8000F216819
:1024500020F0100041E80002DAB1206850E8000FD7
:10246000216820F0100041E8000292B1206850E895
:10247000000F216820F0100041E800024AB12068F6
:1024800050E8000F216820F0100041E80002002A07
:10249000DAD120200021C4F88C00E1666167C4F81D
:1024A0009000032084F88410BDE8F0810020BDE88E
:1024B000F08100BF08210162206850E8000F216808
:1024C00020F4907041E80002DAB1206850E8000F73
:1024D000216820F4907041E8000292B1206850E831
:1024E000000F216820F4907041E800024AB1206892
:1024F00050E8000F216820F4907041E80002002AA3
:10250000DAD14FF6FE70CEF6FF7000BF216851E8B9
:10251000021F2268014042E80213C3B1216851E85A
:10252000021F2268014042E8021383B1216851E88A
:10253000021F2268014042E8021343B1216851E8BA
:10254000021F2268014042E80213002BDED1E06E38
:10255000012824D1206850E8000F216820F01000E5
:1025600041E80002DAB1206850E8000F216820F04D
:10257000100041E8000292B1206850E8000F216885
:1025800020F0100041E800024AB1206850E8000F36
:10259000216820F0100041E80002002ADAD1202052
:1025A000C4F88C0000200821E0666067C4F8901031
:1025B00084F884000120BDE8F0810000FEE70000FF
:1025C00098B0FEF71BF808A804303C21FDF7AEFEDA
:1025D0004FF48030FEF7A0F820B1EFF3108072B610
:1025E000FEE700BF022008904FF480700C9010208E
:1025F0000D90002408A81094FEF798FD20B1EFF389
:10260000108072B6FEE700BF3F20CDE900046846A7
:102610000021CDE90244CDE90444CDE90644FEF7AA
:1026200017FA28B1EFF3108072B600BFFEE700BFC3
:1026300040F20044C4F20224FFF730FAFFF77EFABA
:1026400040F27005C2F200050DA600BF20464FF40F
:1026500011610022FDF7B8FFC820FDF7D5FE204626
:102660004FF411610122FDF7AFFFC820FDF7CCFE4A
:102670002846314611220A23FFF7A2F9E6E700BFF8
:10268000726E55415254205472616E736D6974724A
:102690006E000000F1EE100A4FF6FF71C0F2C0317B
:1026A00020EA010040F04070E1EE100A704700009F
:1026B0000000010203040000000001020304010005
:1026C00002000400060008000A000C0010002000B0
:1026D000400080000001010101030701000008041F
:1026E0000204080101010000082700080000002082
:1026F00010000000940100081827000810000020B6
:10270000F8060000B0010008010000001000000001
:082710000024F40000000000A9
:040000050800015995
:00000001FF
