:020000040800F2
:1000000000000820E5050008C5400008C7400008BA
:10001000C9400008CB400008CD40000800000000A7
:10002000000000000000000000000000E19A00084D
:10003000CF40000800000000819B0008E59B0008FD
:1000400035060008350600083506000835060008A4
:100050003506000835060008350600083506000894
:100060003506000835060008350600083506000884
:100070003506000835060008350600083506000874
:100080003506000835060008350600083506000864
:100090003506000835060008350600083506000854
:1000A0003506000835060008350600083506000844
:1000B0003506000835060008350600083506000834
:1000C0003506000835060008350600083506000824
:1000D0003506000835060008350600083506000814
:1000E0003506000835060008350600083506000804
:1000F00035060008350600083506000835060008F4
:1001000035060008350600083506000835060008E3
:100110003506000835060008D140000835060008FD
:10012000DD400008E94000083506000835060008F3
:1001300035060008350600083506000835060008B3
:1001400035060008350600083506000835060008A3
:100150003506000835060008350600083506000893
:100160003506000835060008350600083506000883
:1001700035060008350600083506000800000000B6
:100180003506000835060008350600083506000863
:100190003506000835060008350600083506000853
:1001A000F5400008350600081D4100083506000826
:1001B0003506000835060008350600082941000804
:1001C00035060008350600083541000835060008E8
:1001D0003506000835060008350600083506000813
:1001E0003506000835060008350600083506000803
:0801F00041410008350600083A
:1002000010B5054C237833B9044B13B10448AFF350
:1002100000800123237010BD5097002000000000D3
:10022000CCDA010808B5034B1BB103490348AFF30F
:10023000008008BD0000000054970020CCDA0108BF
:1002400001F0FF01102A2BDB10F0070F08D010F887
:10025000013B013A8B422DD010F0070F42B3F6D18B
:10026000F0B441EA012141EA014122F007047FF0A4
:1002700000070023F0E80256083C85EA010586EAFB
:10028000010685FA47F5A3FA87F586FA47F6A5FA37
:1002900087F68EB9EED1F0BC01F0FF0102F0070243
:1002A00032B110F8013B013A83EA010313B1F8D1EE
:1002B0000020704701387047002D06BF35460338CF
:1002C000073815F0010F07D1013015F4807F02BF08
:1002D000013015F4C03F0130F0BC0138704700BF59
:1002E00053B94AB9002908BF00281CBF4FF0FF319D
:1002F0004FF0FF3000F074B9ADF1080C6DE904CE99
:1003000000F006F8DDF804E0DDE9022304B07047F0
:100310002DE9F047089D04468E46002B4DD18A42B8
:10032000944669D9B2FA82F252B101FA02F3C2F1EB
:10033000200120FA01F10CFA02FC41EA030E94407C
:100340004FEA1C48210CBEFBF8F61FFA8CF708FB9D
:1003500016E341EA034306FB07F199420AD91CEB75
:10036000030306F1FF3080F01F81994240F21C81A7
:10037000023E63445B1AA4B2B3FBF8F008FB1033EF
:1003800044EA034400FB07F7A7420AD91CEB040424
:1003900000F1FF3380F00A81A74240F207816444F4
:1003A000023840EA0640E41B00261DB1D440002379
:1003B000C5E900433146BDE8F0878B4209D9002DDD
:1003C00000F0EF800026C5E9000130463146BDE867
:1003D000F087B3FA83F6002E4AD18B4202D38242D1
:1003E00000F2F980841A61EB030301209E46002D80
:1003F000E0D0C5E9004EDDE702B9FFDEB2FA82F2D5
:10040000002A40F09280A1EB0C014FEA1C471FFA32
:100410008CFE0126200CB1FBF7F307FB131140EA19
:1004200001410EFB03F0884208D91CEB010103F1E6
:10043000FF3802D2884200F2CB804346091AA4B2A8
:10044000B1FBF7F007FB101144EA01440EFB00FE7C
:10045000A64508D91CEB040400F1FF3102D2A645E1
:1004600000F2BB800846A4EB0E0440EA03409CE780
:10047000C6F12007B34022FA07FC4CEA030C20FA2D
:1004800007F401FA06F31C43F9404FEA1C4900FA4D
:1004900006F3B1FBF9F8200C1FFA8CFE09FB1811CA
:1004A00040EA014108FB0EF0884202FA06F20BD93D
:1004B0001CEB010108F1FF3A80F08880884240F28D
:1004C0008580A8F102086144091AA4B2B1FBF9F0D1
:1004D00009FB101144EA014100FB0EFE8E4508D9CC
:1004E0001CEB010100F1FF346CD28E456AD9023851
:1004F000614440EA0840A0FB0294A1EB0E01A14236
:10050000C846A64656D353D05DB1B3EB080261EBA3
:100510000E0101FA07F722FA06F3F1401F43C5E97D
:10052000007100263146BDE8F087C2F12003D840B3
:100530000CFA02FC21FA03F3914001434FEA1C47F5
:100540001FFA8CFEB3FBF7F007FB10360B0C43EAE7
:10055000064300FB0EF69E4204FA02F408D91CEB97
:10056000030300F1FF382FD29E422DD90238634495
:100570009B1B89B2B3FBF7F607FB163341EA034135
:1005800006FB0EF38B4208D91CEB010106F1FF3884
:1005900016D28B4214D9023E6144C91A46EA00467B
:1005A00038E72E46284605E70646E3E61846F8E60D
:1005B0004B45A9D2B9EB020864EB0C0E0138A3E756
:1005C0004646EAE7204694E74046D1E7D0467BE737
:1005D000023B614432E7304609E76444023842E7AF
:1005E000704700BFDFF834D0002103E00C4B5B58AC
:1005F000435004310B480C4B42189A42F6D30B4A35
:1006000002E0002342F8043B094B9A42F9D304F07C
:1006100003FD1CF0E1F902F0F9FC7047000008202E
:100620002C0D0208000000205001002050970020EF
:10063000BC460220FEE77047704708B501F0E8FCB1
:10064000BDE8084001F074BC01F0E4BC174B1A6B24
:1006500042F0010210B51A6386B01B6B03F0010370
:100660000093009B59B9012303911148CDE9013151
:10067000022301A9049305F0C3FC06B010BD0129B3
:10068000FBD100240223019101A90948CDE90343CC
:100690004FF48813029305F0B3FC22460F21062085
:1006A00004F028FD062004F057FDE6E7003802407C
:1006B00000000240002108B50846FFF7C7FF08BD4B
:1006C0000121024808B505F021FE08BD00000240E6
:1006D00008B50020FFF7F4FF08BD4068704741608F
:1006E000704700004FF0E022D2F8FC3D43F08073E9
:1006F000C2F8FC3D054B064AD3F8B01F0A43C3F8C5
:10070000B02F1A6842F001021A607047001000E032
:1007100055CEACC5511A01EB5301B1FBF3F0704754
:10072000014B5868704700BF001000E0704710B5DB
:1007300004460C211CF0D8F8204610BD036810B503
:100740001B69044631B19847A26863689B1A184434
:10075000606010BD9847A060FBE7704770470000DD
:1007600008B5FFF7A7FF024B00221A6008BD00BFC3
:100770006C97002070B50D46FFF7AAFF0B4AC4B274
:1007800093785678117813F00100D37096705170F9
:1007900014700AD016F0010007D011F0010004D047
:1007A000E30756BF01200020287070BD6C97002021
:1007B00010B5044604211CF097F8204610BD704780
:1007C00010B5044604211CF08FF8204610BD704778
:1007D0007FB501238DF817204FF47A72CDE90132ED
:1007E0000DF1170200920A460146064805F028FF5F
:1007F00020B1044805F00AFF02F0E6FB07B05DF8FF
:1008000004FB00BF14EB00207FB500230A464FF421
:100810007A718DF817300123CDE901310DF11701FF
:1008200000910146064805F0E5FF20B1044805F0B7
:10083000EDFE02F0C9FB9DF8170007B05DF804FB60
:1008400014EB00201FB54FF47A7400920A4601465B
:100850000748CDE90134012305F0CCFF044620B15F
:10086000034805F0D3FE02F0AFFBA0B204B010BD08
:1008700014EB0020F8B5134D0646134C0F462B68B9
:10088000207898476B6854209847C0B2112809D047
:100890006B68702098477023C0B22370112803D072
:1008A0000320F8BD54232370084BBE4234BF0126F9
:1008B0000C2620781E70AB6898472078EB68984724
:1008C0000020EEE73800002070970020719700208C
:1008D00008B54FF4F0714FF44870FFF7CBFF074BAA
:1008E00010B901221A7008BD1B78002BFBD1044BF4
:1008F0006A21044A04481CF025F800BF72970020C2
:1009000068DB01087BDB0108A5DB01082DE9F04F5E
:10091000354A0746DFF8E0A085B01078DAF81030E5
:100920009847387000285AD0304E07F10209304DF0
:100930000DF10C0B02AC4FF000083B7843454ED94B
:1009400029485A462146DAF81430007808F101089F
:100950009847284BB446AE461B7804360435190731
:1009600041BF2288BBF80010ABF8002021809A0715
:1009700041BF2288C2F54772033222805B0756F8D6
:10098000042C48BFBBF8003034F8020B42BFC3F55B
:10099000EF730133ABF8003093B290423BF8021B87
:1009A0008CBFC31A1B1A9BB2019355F8043C9AB230
:1009B0009942019B8CBF8A1A521A92B21A44052A94
:1009C000C8BF46F8040CDCF80030C8BF45F8041C6A
:1009D00029F8023BDEF80030A9F80230ADE700202C
:1009E00005B0BDE8F08F00BF70970020749700201D
:1009F0007C97002071970020380000207FB50B4BBA
:100A00000E4615461C785CB101A8FFF77FFF9DF8E4
:100A1000043043B1BDF806303360BDF80A302B60B6
:100A2000204604B070BD1C46FAE700BF7297002054
:100A3000032823D8DFE800F0020B121A104B4021E4
:100A40001A68B2FA82F252090E4805F065BC0C4BE6
:100A500080215A68B2FA82F25209F5E7084B022166
:100A600009489A68B2FA82F25209EEE7044B402133
:100A70000648DA68B2FA82F25209E6E7704700BF28
:100A80008497002000080240002402400014024025
:100A9000032823D8DFE800F0020B121A104B402184
:100AA0001A68003A18BF01220E4805F035BC0C4BFD
:100AB00080215A68003A18BF0122F5E7084B02214D
:100AC00009489A68003A18BF0122EEE7044B40211A
:100AD0000648DA68003A18BF0122E6E7704700BF0F
:100AE00084970020000802400024024000140240C5
:100AF00003280FD8DFE800F00206080B4021064863
:100B000005F00FBC8021FAE702210448F8E74021F4
:100B10000348F5E7704700BF000802400024024088
:100B20000014024008B5032813D8DFE800F0020AD9
:100B30000C0F4021084805F0E9FB431E584258417C
:100B400008BD8021F6E702210448F4E7402104486B
:100B5000F1E70020F1E700BF000802400024024056
:100B60000014024070B5084D00240126E0B2FFF7E2
:100B7000D9FF18B12B68012B18BF2E600134043542
:100B8000052CF3D170BD00BF84970020012380F8AD
:100B9000741080F875307047002070474164003948
:100BA000024B18BF01211970704700BF1744022083
:100BB00000207047836B0BB10846184770474FF60B
:100BC000FF707047406803689B691847014B1868BD
:100BD000704700BF9497002070470000F0B40023D6
:100BE000104CC4F88430BFF34F8FD4F8803043F6F4
:100BF000E076C3F3C905C3F34E335B0103EA060C89
:100C00002A464CEA8277013AC4F87472F9D2203B42
:100C100013F1200FF2D1BFF34F8FBFF36F8FF0BCF2
:100C200001F0CABA00ED00E008B501F059FA024B34
:100C30000422DA6008BD00BF00E100E010B5044600
:100C400001F0C2FB94F84B3013B1024B01221A7031
:100C500010BD00BF1400002001F04BBA10B50446CF
:100C60000CF066F923682046D3F8AC30BDE810409C
:100C700018470BF0C3BB10B504467C211BF034FEB3
:100C8000204610BD024B00221A700BF0F3BB00BFD0
:100C90001400002038B50446FFF764FF084D2046D5
:100CA00001F064FA0023284684F84A30FFF71AFD61
:100CB0000123256184F86C30024B636138BD00BFAD
:100CC0009C970020A89700200368044607B5D3F836
:100CD00080309847236820469B6F984700F0F4FEC9
:100CE000236820461B6F98470021292315220548B9
:100CF000009105F0FCF800F0E7FE236820461B6F2A
:100D00009847F8E7F8EA002008B501F0E1F9002279
:100D100007215A2004F0EEF9002207216220BDE8E5
:100D2000084004F0E7B990F877301BB140680368D9
:100D30001B6818471846704790F834100D4B10B5D3
:100D400090F874401A788C4209D03AB90A490B4A93
:100D500008881488108001220C801A7010BD002AA7
:100D6000FCD0064A0449148808880C8010800022B0
:100D7000F3E700BF104402200E4402200C4402207E
:100D800008B5094B1B888B4203D8084B1B8893423C
:100D900005D9074B9E21074A07481BF0D3FD074B97
:100DA0001980074B1A8008BD0C4402200E44022013
:100DB00008DC01086BDC0108AEDC010812440220EB
:100DC0001444022008B501F031FB044B0422C3F89F
:100DD0008C20BFF34F8FBFF36F8F08BD00E100E0A1
:100DE00070B50D4619460B4B1D6035B90A4B40F2E4
:100DF000D2210A4A0A481BF0A5FDC0E90F52003A69
:100E0000084B18BF01221A700368BDE87040D3F880
:100E10008C30184794970020F3DC01082BDD010883
:100E2000AEDC010816440220C0E90112C3604FF491
:100E300080720023C0E912231E4A038580F82A30FD
:100E4000C3620386036680F86C300367C0E9192328
:100E50004FF0807270B542670122BDF81050BDF8A6
:100E600014602035C0E90433C0E90633C0E9083313
:100E7000C0E90E33C0E91033C0E91433C0E91633BA
:100E800080F87820ADB20C4AB54210600B4A15804C
:100E90000B4A158028BF00250A4A38BF0125168055
:100EA000094A80F834501680084A1370084B0360D2
:100EB00070BD00BF01000001184402200C44022054
:100EC000124402200E440220144402201044022046
:100ED00084DD010804F0EAB8012807B50AD84B7888
:100EE0001522094800930B78002105F000F803B0A3
:100EF0005DF804FB019139220B5C0021009303464D
:100F0000014805F005F8F2E7F8EA002037B50223BA
:100F10000A4A15250A4C137000215570204601928B
:100F200044220092392204F0F3FF002135232A469F
:100F30002046009104F0DBFF03B030BDAC970020E9
:100F4000F8EA002007B50190FFF7E0FF0F4B0222FF
:100F500001981B68C3F810240122C3F81024D3F8A9
:100F6000082442F00102C3F80824D3F8082442F010
:100F70000202C3F80824064B1A68536B43F00303BC
:100F8000536303B05DF804EB01F0B2B8F8EA002057
:100F9000C0EB0020074B07B503EB80002A23392262
:100FA0000021009304230190034804F0B1FF03B033
:100FB0005DF804FB04000020F8EA002070B5154D30
:100FC00004460020FFF734FD2A6892F866300133AA
:100FD00082F8663000F06CFD0F4B28681A781B7899
:100FE00080F84A2023B10D4D2B7803F0FF0623B182
:100FF0000020BDE87040FFF74BBD0BF099FF084B98
:1010000030461E60FFF7C6FF204604F060FF012354
:101010002B7070BD1844022014000020AE970020F1
:1010200098970020334B1A68013270B5032A1A6072
:10103000314B0546314C1968314B2EDCD4F8040491
:1010400020F00800C4F804044FF4C87000FB02113B
:101050001046C3F8AC100CBFE823C823284902335C
:101060001B0443F4F1730B61264B4B61A3F5F07342
:10107000C1F88830244BC1F8B03001234B62FFF730
:1010800089FF1E4A2846D2F8043443F00803BDE81D
:101090007040C2F8043404F01ABFD4F804240020CD
:1010A00022F00802C4F80424184AC3F8AC101A61EC
:1010B00002F101125A61164AC3F88820124AC3F895
:1010C000B02001225A62FFF765FFD4F804340020F3
:1010D00043F00803C4F80434FFF7DAFC0D4B002298
:1010E0001A700D4B186820B10368BDE870401B6A88
:1010F000184770BD9897002094970020006C01401D
:1011000000680140E301CA0093018006E201CA00C1
:101110000300CA00AE97002018440220014608B51B
:10112000034B186801B101210BF01CFF012008BD21
:1011300018440220054B002205485A609A60054A6F
:101140001A60054B0360FFF70BBB00BF9C970020A4
:10115000A89700202CDB010854DB01084069704788
:1011600090F840007047036B23B9C06A003818BF7D
:101170000120704701207047806870477047043035
:1011800010B50C460FC884E80F0010BD7047000072
:1011900008B5034A4FF4E571024B03481BF0D2FB3C
:1011A00054DE0108F7FC0108AFDE010810B5044663
:1011B00044211BF099FB204610BD000038B50025E6
:1011C0000F4B04460360C56380F84050C0E90555E5
:1011D000C0E90755C0E90955C0E90B55C0E90D55EF
:1011E000C0E90355C0E9015501F018FD2A4629461A
:1011F000012008F03DF9034B1860204638BD00BFC0
:1012000034E10108F497002020B40D4611461A4637
:10121000036B3BB1C36B406BED1A28445DF8045B74
:101220001CF04AB8C06AF8E7036B10B573B1C36B22
:10123000426BC91A5318525C98785C780004DB78CA
:1012400040EA0420104340EA036010BDC36A5858C6
:10125000FBE7036B43B1C36BC91A436B5A18585C65
:10126000527840EA02207047C36A585A704700001B
:1012700070B50446006B0D461646D8B1A36B934279
:1012800008D209230D4AA8210D4884F840300D4B9F
:101290001BF058FB0368DB689847206B3246616B94
:1012A00003681B69984710B90D2384F84030606BC0
:1012B000E56370BDE06A0844FBE700BF14DF010886
:1012C000AFDE010801DF01082DE9F8434369044658
:1012D0002BB9224BEE21224A22481BF033FB082275
:1012E0008169FFF7C5FFA169204643F23007043149
:1012F00046F26436FFF798FF0546A169A36A0D44DC
:1013000005F108029A4222D2636909350822204673
:1013100025F001010133A1616361FFF7A9FFD4F852
:10132000188020464146FFF794FF814608F10401EA
:101330002046FFF779FFB9450546DED108F10201E5
:101340002046FFF786FFB042D7D1012004E00123F9
:1013500000206361236AA361BDE8F88356DF0108BA
:101360009FDF0108AFDE01080129036838BF0121B2
:10137000DB6A70B50D4604469847A84204D223683C
:101380002046DB6A984705466B1EE6691022204618
:1013900006EB031606F10801FFF76AFF06F11001DC
:1013A0002046FFF741FF236A043B0344C4E9055389
:1013B00070BD00002DE9F3410021044648228161FF
:1013C00080F84010FFF754FFA7690423644A3946A8
:1013D0002046FFF719FF48B10323624A4FF49B717F
:1013E00084F84030604B61481BF0ACFA07F108010B
:1013F00004235F4A2046A161FFF706FF38B10423AA
:10140000584A4FF49F7184F840305A4BEBE707F18C
:101410000C010423584A2046A161FFF7F5FE064659
:1014200038B105234F4A40F2451184F84030534B00
:10143000D9E707F110012046FFF7F6FE054620B96F
:101440004F4B40F24B11474ACDE707F114080423F4
:101450004C4A20464146FFF7D7FE00284BD00623D2
:1014600084F840300423484A07F118012046FFF76A
:10147000CBFE002841D0072384F840304544434F39
:101480000C2220462946FFF7F3FE05F10806042347
:101490003A4620463146FFF7B7FE94F84030002820
:1014A0004AD0002B4AD1A36A291DAB424AD805F184
:1014B0000C03291D2046A3610191FFF7B5FE3044BE
:1014C000019960622046FFF7AFFE064404222046E1
:1014D0003146FFF7CDFE04232D4A31462046FFF763
:1014E00093FE002839D10123E6616361A369236279
:1014F00002B0BDE8F0810126B4E7002EBED007F1AE
:1015000020012046FFF790FE4FF47A7307F1300177
:10151000B0FBF3F060602046FFF786FE07F1400164
:10152000A0602046FFF780FE07F14401E0602046FE
:10153000FFF77AFE2061A1E7002BB8D00A2384F8D8
:101540004030D5E72046FFF76FFE08300C220544F7
:1015500020462946FFF78CFE97E70B23EFE700BFF5
:10156000D2DF0108F0DF0108D7DF0108AFDE010894
:101570001DE0010822E001083AE001083FE001080F
:1015800055E0010861E0010866E001086BE0010830
:1015900070E00108C0E90A2100220263FFF70ABFD8
:1015A00010B5002304460846E3620B6821639B687C
:1015B0009847A0622046BDE81040FFF7FBBE000040
:1015C00037B5124C4FF4C07523600024104B1C60DB
:1015D000104B1C60104B1C60104B1C60104B1960B2
:1015E000104B1A60104A114BD2681C606A43104BB2
:1015F0001C709C601C735C6100924FF480325B68CD
:1016000005F06AFD204603B030BD00BFB097002052
:10161000D8970020C0970020C4970020B8970020DA
:10162000B4970020BC970020DC970020D0970020C2
:101630001800002008B54B680846012B19D1CB686B
:101640001A071E4A1EBF23F00F031033CB608B68AE
:1016500019071B491EBF23F00F031033836001F0ED
:1016600079FA48B3174B4FF40B71174A17481BF020
:1016700069F9022B17D1CB681A0703D023F00F03A7
:101680001033C36083685A071EBF23F00703083373
:1016900083600A4A0A490AF081FB68B1094B40F2AB
:1016A0004E21094AE2E7002BF3D1CB685907E9D074
:1016B00023F007030833E4E708BD00BFD4970020F8
:1016C000F097002075E0010886E00108AFDE010810
:1016D0000B4B1A680A4430B41A600A4B1B689A42D2
:1016E0000CD2094C9A1A2568B2F5803F294428BFCC
:1016F0004FF48032216030BC05F055BD30BC7047DE
:10170000B8970020BC970020B4970020F8B5174D7B
:1017100001270C21164C2B68064659433B44BB421B
:1017200004EB0100675488BF002382600C222B6009
:101730002B685343E35C33B10221304605F000FDD2
:101740000C4B01221A602A680C210B4B304601FB1E
:1017500002444FF4C072DB6861685A4305F026FD0D
:10176000064B1868BDE8F84007F012BFC497002088
:1017700018000020D8970020DC970020F497002064
:1017800072B6FEE7014B01221A607047CC97002029
:101790002DE9FF41384D0C26384C2B687343E35C30
:1017A000012B49D1364A5369DB031ED50023C2F809
:1017B0008430BFF34F8FD2F8803043F6E076C3F326
:1017C000C900C3F34E335B0103EA060C01464CEA41
:1017D00081770139C2F87472F9D2203B13F1200FDE
:1017E000F2D1BFF34F8FBFF36F8F0C26254F2868C0
:1017F0000DEB06033A6806FB004023490093234B98
:101800000968D3F8008083684068C0472A683B684D
:101810005643013218440023012A04EB0601A35564
:101820008B6098BF134638602B60194B3A681B6871
:101830009A420FD1012018E016490A68012A17D1EF
:10184000154A12687243A25C134311D10B60022146
:1018500005F0E2FE0B4B1A680D4B1B689A4209D14A
:101860000E4B1868003818BF012004B0BDE8F081A5
:101870000220FAE70020F8E7C097002018000020B7
:1018800000ED00E0D0970020B0970020F0970020F6
:10189000D4970020D8970020C4970020CC97002030
:1018A00038B56AB363B3174C02252561C568006972
:1018B00015F00F0F00F00F0018BF25F00F05C0F155
:1018C000100018BF1035A06025604FF4C8650E48A1
:1018D000656025682D09E560FFF772FE0A4D0B4C27
:1018E0002846FFF755FF20602368022B05D1084BDF
:1018F0004FF0FF31186807F011FE2368012BEFD17C
:1019000038BD00BFDC97002068EB0020C89700209E
:10191000F49700202DE9FF479946436904460F4696
:1019200090462BB92A4BBA212A4A2B481BF00AF8B9
:1019300008228169FFF79CFCA669204606F1080A87
:10194000311DFFF771FCA36A00EB0A0205469A42BB
:1019500031D231462046FFF77CFC43F230039842F7
:101960001DD1B11C2046FFF774FC46F26433984247
:1019700015D1A5B12A4651462046C4F818A0FFF754
:1019800077FC0C9B01462A462046CDF80080CDE925
:1019900001933B46FFF784FF636901336361A369E9
:1019A0002B448DB1A361A369626A013323F0010363
:1019B0009342A3610AD10120236A6061A36180F090
:1019C000010004B0BDE8F0870833EBE70020F6E73C
:1019D00056DF0108CEE00108AFDE010873B504460A
:1019E000816915460822FFF743FCA6692046311D90
:1019F000FFF71AFC06F10801024601902046FFF7A6
:101A000037FC01466DB12B46074C084D019A07483B
:101A1000FFF7D6FD2846FFF7BBFE20602368002BAA
:101A2000F8D0012002B070BDC897002068EB0020FC
:101A30000121002208B5084607F01AFD0A4B18607C
:101A400028B90A4B28210A4A0A481AF07BFF0022CB
:101A50000421012007F0D2FD074B186018B9074B8D
:101A60002C21034AF0E708BDFC97002070E1010833
:101A7000B9E10108E8E10108F897002030E2010827
:101A8000024B4FF0FF31186807F048BDFC9700206B
:101A9000014B186807F07CBDFC970020024B002129
:101AA000186807F03BBD00BFFC970020FFF7F0BFB0
:101AB0000023034803491A46006807F0E5BD00BF4C
:101AC000F89700203000002013B50023074C01A92F
:101AD0001A46206807F01AFE4FF0FF33002201A9D2
:101AE000206807F013FE02B010BD00BFF897002079
:101AF00003685B6C18470120704703689B6A1847AE
:101B00000D4B82B01A6B42F400021A631A6B02F496
:101B100000020192019A1A6942F400021A611A69DC
:101B200022F400021A61054B054A9A614FF0806267
:101B3000044B9A6002B0704700380240E0E9002090
:101B4000891B000800E100E040F2EF307047000020
:101B5000054B4FF080620360044BC3F88820BFF34D
:101B60004F8FBFF36F8F7047C8E3010800E100E0BB
:101B700010B504464FF45A61FFF7EAFF20461AF009
:101B8000B3FE204610BD0000024B1B685868036876
:101B90005B6918471844022070B504460A4B0C30A4
:101BA00000262546602260602672667245F8203B5A
:101BB00029460BF013FB04F55A63EE602435AB4263
:101BC000FBD1204670BD00BFC8E3010808B50B2952
:101BD0000BD8DFE801F01206100A0A0A0A08080802
:101BE0000808012008BD0520FCE7054B6621054AD1
:101BF00005481AF0A7FE0020F4E70220F2E700BF34
:101C000072E201088DE20108D7E2010808B50A294D
:101C100009D8DFE801F010060E08080808060606D5
:101C20000600012008BD054B8721054A05481AF02A
:101C300089FE0020F6E70220F4E700BF72E2010807
:101C40001DE30108D7E201082DE9F8434F7F0C4658
:101C500081463946FFF7BAFF94F81E80054648468C
:101C60004146FFF7B3FF414606464846FFF7CEFF21
:101C7000A18A628B424B521A1A649A61228B521AC1
:101C80001A61E28A586342EA014220695A64626832
:101C9000D863DA60216894F81CC080294FEA0C628E
:101CA00026D010D8202945EA020462D0402960D00D
:101CB00004295ED02A43324B474542F40032DA61B0
:101CC0005BD0304A40E0B1F5807F07D0B1F5007FAE
:101CD000F0D142F4003242F0090203E042F4003253
:101CE00042F00A02DA61E2681A625E6258612AE032
:101CF000A4682A43211D42F40032D962DA612278B5
:101D00005E62586142B1012A21D01F4B40F211118D
:101D10001E4A1F481AF016FEDA690120618822F473
:101D20007F42013922F0100242EA0122DA61144BAB
:101D3000DA6942F02002DA61DA699206FCD41022F4
:101D40009A600028BDD0134A1A60BDE8F883628803
:101D5000BCF1FF00D96902F1FF3418BF012021F462
:101D60007F4222F0100242EA042242F01002DA61BD
:101D7000DDE744F40034DC61B7E740F20122E3E739
:101D800000B002400102010068E3010882E301089B
:101D9000D7E201080102020070B50C46897FFFF707
:101DA00035FF174BA68AE18A628B41EA0641256915
:101DB000921B58635964DD631A642668E168082E33
:101DC0000DD19A611A6158620E4A207F42EA006280
:101DD000DA610D4A19625D61DD601A6070BD002232
:101DE000D86148091A610A0A00F4FC60C1F3C40111
:101DF00002F4784202430A439A63044AEDE700BFC3
:101E000000B00240090001000102020001020300CB
:101E1000012070470C2070470C2303FB01000830A1
:101E200070470C2303FB0100083070470120704706
:101E3000A0207047A02303FB010008307047A023B7
:101E400003FB0100083070470120704710207047E5
:101E500000EB01100830704700EB011008307047AC
:101E6000084602F047BB0000034B10B50446036070
:101E70000AF01BF8204610BD80E4010810B50446A6
:101E8000FFF7F2FF142120461AF02EFD204610BD68
:101E9000034B10B5044603600AF007F8204610BD56
:101EA0004CE4010810B50446FFF7F2FFA8212046D4
:101EB0001AF01AFD204610BD034B10B5044603600E
:101EC00009F0F3FF204610BD18E4010810B50446E0
:101ED000FFF7F2FF182120461AF006FD204610BD3C
:101EE000084B10B5044640F8D43BFFF7BDFF04F1A2
:101EF0002C00FFF7CDFF04F11400FFF7DDFF2046B3
:101F000010BD00BFB4E4010808B50248FFF7E8FFC0
:101F100008BD00BF0498002010B50446FFF7E0FF9D
:101F20004FF4127120461AF0DFFC204610BD00006D
:101F30002DE9F34102F078F90024054602F078F922
:101F4000234601462246284600940EF0B7FE254B54
:101F5000254A2046254D1A6002F0E0FC24480EF088
:101F600015FE2B78BFF35B8FDB0735D428461AF0BC
:101F7000BDFC88B31F4C204B04F1EC0604F11400A7
:101F800004F12C0804F1D40723606060C4F80880D1
:101F9000E760266109F08AFF184B4046636109F04B
:101FA00085FF174B3846E36209F080FF154B04F1BB
:101FB000E800C4F8D43002F01FFD224604F1E80125
:101FC000304602F00FFD304602F094FA0E481AF047
:101FD000D7FC28461AF096FC0C4802B0BDE8F04148
:101FE000FEF758BE744402206CA800200098002020
:101FF0003400002004980020B4E4010818E401082B
:102000004CE4010880E40108091F0008F0A7002043
:10201000704700000148FEF757BE00BFF0A7002040
:1020200013B50C490C4B0D4C08462360FFF7B4FD6B
:102030000B4A104611F04EFF4FF448734FF4F07204
:1020400004490848CDE900322346054AFEF7ECFE74
:1020500002B010BD509A0020F8DB01084C9A002015
:1020600070A80020F0A700200148FFF771BD00BF55
:10207000509A00200020704781807047C1807047CF
:1020800001817047418170477047704770477047C2
:10209000704710B4C4880368121B84885B6D091BE9
:1020A00012B25DF8044B09B218474FF6FF738381F3
:1020B0004FF0FF3303621368C3611060704790F8FC
:1020C00025201AB190F8242002B118607047000052
:1020D000024B902283F85A23704700BF00E100E0D2
:1020E000024B4FF080629A60704700BF00E100E051
:1020F00070477047124A5369DB0370B51ED5002341
:10210000C2F88430BFF34F8FD2F8803043F6E074CA
:10211000C3F3C900C3F34E335B0103EA040601466F
:1021200046EA81750139C2F87452F9D2203B13F1A5
:10213000200FF2D1BFF34F8FBFF36F8F70BD00BF81
:1021400000ED00E00163C0E90D217047704700EB2E
:102150008100114640680368DB68184710B50446E3
:1021600048211AF0C1FB204610BD000038B50446D6
:102170000AF099F923685D6E0CF068F90146204673
:10218000A847236807492046D3F8885000231A46F9
:10219000A847054B054A5A60054A1A639A63054ADF
:1021A0005A6338BD00B80BC02CA90020E8A8002055
:1021B000000000C000B80B000AF026B90AF081BA8E
:1021C00038B504460D46406C4FF0FF3107F0F6F885
:1021D000606C07F023F92421002301FB054585F8F5
:1021E000283094F828300BB9236BA36338BD90F8DE
:1021F000252012B103685B691847704708B531B1F3
:10220000044B4FF4B871044A04481AF09BFB90F851
:10221000290008BDC0E40108D4E401085EE6010815
:1022200010B531B1064B4FF4B571064A06481AF0A5
:1022300089FB406811460368BDE810401B6B1847D6
:10224000C0E40108A1E601085EE6010808B529B16D
:10225000034B7921034A04481AF074FBC06808BD97
:10226000C0E401084FE801085EE6010810B5044625
:1022700029B1194BA221194A19481AF063FB052A02
:1022800015D8DFE802F0031115171C224068036817
:102290001B69984758B1012384F8293084F82C3001
:1022A0000023C4E9043302E0002380F8293010BD84
:1022B0000362F5E70362012380F82A30F0E7002388
:1022C00080F8293001230362F1E7003B18BF0123A6
:1022D00080F82D30EBE700BFC0E4010804EA0108F4
:1022E0005EE6010810B50C4611461A462CB1064BA5
:1022F0009021064A06481AF025FBC460406803682E
:10230000BDE810409B681847C0E40108D8EB0108FD
:102310005EE6010808B529B1054B8221054A064849
:102320001AF010FBC0E90411C0E9063208BD00BF75
:10233000C0E40108B3ED01085EE6010890F83D3005
:1023400010B5044653B14FF0FF31406C07F036F83A
:10235000002384F83D30012384F83E3010BD000096
:1023600010B50446104629B1134BD021134A144826
:102370001AF0E8FA94F8293033B1124B1B6893F83D
:10238000671063690B44636194F82B300BB901202B
:1023900010BDA368036303685B699847002394F842
:1023A0002C0084F82B300028F1D194F82D30002B2C
:1023B000EED184F82900EBE7C0E401086FEF0108D3
:1023C0005EE601081844022010B5174C0AF05EF8CA
:1023D00094F8293013B994F82A30ABB1E169D4E903
:1023E0000532534322694A4393420DD394F83C008B
:1023F00038B19B1AB3FBF1F2994298BF02F1FF3258
:102400006262012384F82E300123206C84F83D3071
:1024100007F0BEF894F83E302BB1606C06F0FEFF7A
:10242000002384F83E3010BD2CA90020044B4FF04F
:102430008062C3F88820BFF34F8FBFF36F8F704760
:1024400000E100E090F8283070B5DBB90122856B1F
:10245000C36082624FF480720361828505F53B227E
:10246000436102F500628361C3610362436280F8E5
:102470002E30D0E90C463444A2420AD90B4B5221EB
:102480000B4A03E00B4B40F2C5110B4A0B481AF004
:1024900059FA82634FF4487285601846CA864FF431
:1024A000F07281F834300A870B6370BDC7F20108FF
:1024B00002F3010810F1010840F101085EE601088D
:1024C0002DE9F743044601264FF4C8674FF0FF316A
:1024D000206C07F023F84FF0FF31606C06F06EFFC0
:1024E00094F82E3043B36568D4F820802B6884F8C4
:1024F0002B60B8F1000F23D05B6A4146284698470D
:10250000002323622B684FF4487200972846D3F8C3
:1025100014804FF4F073A168C047236984F82C003D
:1025200001332361F0B12B6828469B6A9847013834
:10253000E060002384F82E30606C06F06FFFC5E782
:10254000626A002ADED02846D3E909939847616A77
:1025500001442846C8472369626AC4F824801344AA
:102560002361CFE7E660E4E7014808B5FFF7A8FF7D
:102570002CA9002038B514480025FEF71FFE134C87
:10258000134B2A462946012023604FF48073A5632C
:10259000A387A38584F83E5084F82E50C4E90C55D7
:1025A000C4E91055C4E90155C4E90355C4E905550A
:1025B000C4E90755C4E9095506F05AFF20642846C6
:1025C00006F0BAFE606438BDE8A800202CA90020FF
:1025D000B0F401082DE9F04F8DB007924FF4C072AE
:1025E000DDF81C8001900B91B3FBF2F306936C4B6A
:1025F0005A6A9B6A05920022DDE9061001444145B2
:1026000006D80AB1664A936206980DB0BDE8F08F0D
:102610004FEA0813059A059908F101084FF0000BDD
:10262000B3FBF2F201FB12334FF4C8415B0001FB34
:1026300002330293019B03F5807C9946029B594A21
:10264000934200F2998003F5C8650B9BCDF80C907E
:102650001D440CF1080309930CF1FF33039F00267E
:102660000493A5F5C8630893089B02374E4833448A
:1026700017F802EC0A93049B13F8012F04934B4BB9
:1026800053F82210049B93F8403050F823404848F8
:1026900050F82330474850F822201344464A144447
:1026A000104604EB0E0200EB23430144089892F815
:1026B00000214FEAD20A03EB0E028E4492F8002169
:1026C0009EF800E19208520142EACA2242EADE0282
:1026D000825317F801EC0A9804EB0E0292F800A15D
:1026E00003EB0E028E4492F800214FEADA0A9208B8
:1026F000520142EACA229EF800A142EADA0242806E
:1027000097F806E004EB0E0292F800A103EB0E022C
:102710008E4492F800214FEADA0A9208520142EA06
:10272000CA229EF800A142EADA02AA53FA791344B7
:1027300014440A4493F8003194F800419B08E408DB
:102740005B0143EAC42392F80041AA19043643EA24
:10275000D403102E538087D1039B0CF1040C103549
:1027600040330393099B63457FF476AF029B09F1E5
:10277000100903F5486302930BF1020BBBF1100F34
:1027800007D1019B012203F5C07301934FF4C86385
:1027900032E7BBF1080F04BF019B03F180094DE74D
:1027A000F4D50020FFB70B0074C1002074B50020E1
:1027B00074BD002074B90020E8F401082DE9F04F41
:1027C0001B0A8DB005934F4B06925A6ADDF818E04C
:1027D00002929A6A1B690A9103920793DDE9053216
:1027E0001344734503D805980DB0BDE8F08F4FEA48
:1027F0000E12029B0EF1010E00F180078246B2FB21
:10280000F3F1039B03FB01F4029B03FB11235B0029
:1028100003EBC403009308230493079B009A93429D
:1028200069D90A9BD04603EB020907F10803089314
:102830007B1E0024019308F101030B9309EB840331
:1028400018F814C00993019B13F8012F01932E4B24
:1028500053F82250019B93F840102C4B53F8216001
:102860002B4B53F821102B4B53F8222011442A4AAA
:102870001346164403EB214106EB0C021D440B9B4F
:1028800092F800B101EB0C02AC4492F800214FEA3F
:10289000DB0B9208520142EACB229CF800B142EADB
:1028A000DB0229F8242013F814200134099B114479
:1028B00016441544042C91F8001196F800614FEA73
:1028C00091014FEAD6064FEA411141EAC62195F837
:1028D000006141EAD6015980B0D10437089B09F163
:1028E000100908F14008BB42A2D1009A0AF1080A77
:1028F000039B1A440092049B013B04938DD100F585
:1029000080706BE7F4D5002074B5002074C10020FE
:1029100074BD002074B90020E8F401082DE9F04FDF
:102920009246C02289B054460791B3FBF2F3354A70
:102930000493516A0091916A126901910592049B76
:1029400003EB0A02A24203D8184609B0BDE8F08F93
:10295000E100009A01348446B1FBF2F5019A02FBD2
:1029600005F6009A02FB151208215200039102EBB2
:10297000C60200F14006059991423DD9079906F13A
:10298000FF3E8D180CF1FF31029105F11001069107
:10299000029F1EF8018F17F8011F9EF840901A4BF6
:1029A00002971A4F19441A4B57F829700F4497F899
:1029B00000B153F82870174B4FEADB0B0F4453F864
:1029C0002990154B97F8007153F82880FF08069B53
:1029D000C84447EACB2701EB284898F800B14FEAF2
:1029E0009B0B47EA4B1725F8027B9D42D0D1019BF8
:1029F00008360CF1080C1A44039B013B0393BAD12F
:102A0000C0309CE7F4D50020E8F4010874C1002030
:102A100074B5002074BD002074B900202DE9F04F7A
:102A200085B004469809029102EB93131A49039367
:102A3000D1E9098909690191039B934202D805B044
:102A4000BDE8F08FD100A44601320827B1FBF8F3AE
:102A500009FB03F508FB13135B0003EBC5030199A6
:102A6000994214D90299E246194401F1100B1AF85F
:102A7000016BF508B6084FEAC52E4EEA46162E43FE
:102A800021F8026B5945F2D10CF1080C4B44013F7F
:102A9000E5D14034D0E700BFF4D500202DE9F04F58
:102AA00085B00546FF27180A029102EB1323284937
:102AB0000393D1E9099A09690091039B934202D8D3
:102AC00005B0BDE8F08FD300AE4601324FF0080CE0
:102AD000B3FBF9F10AFB01F409FB1131490001EBE9
:102AE000C401009B8B422CD9029B74465E1806F1F0
:102AF0001003019394F8C080013414F8013C13FBD7
:102B000008F3B3FBF7F34FEAE30B94F83F3013FB02
:102B100008F3B3FBF7F39B105B0143EACB2394F874
:102B20007FB01BFB08FBBBFBF7FB43EADB0B019B06
:102B30001FFA8BFB26F802BB9E42DBD10EF1080E7A
:102B40005144BCF1010CCCD105F58075B5E700BF4F
:102B5000F4D50020F0B5C4688568066805FB04F765
:102B6000284B4068102E4FEA47071E609C60DD60CE
:102B70001F6158603CD1012822D12348086014F01D
:102B80000F0118BFC1F1100159611021D9611962FB
:102B90005969D8692144596261009962B4FBF0F126
:102BA00000FB114404B101311C6AB5FBF4F004FBD5
:102BB000105505B1013041430020D9621160F0BDCC
:102BC00002280BD11148086014F00F0118BFC1F1A1
:102BD000100159611021D9610821D8E70C4808601B
:102BE00014F0070101D0C1F1080159610821CDE7B6
:102BF0000EB90848F3E7302E01D10748EFE701206E
:102C0000DDE700BFF4D50020D5250008BD2700086A
:102C10001D2900081D2A00089D2A00082DE9F04FF3
:102C2000DFF850C20023DFF8508244F68B4B7E4F12
:102C300049F2456A7D4E41F62F597D4D7D4C7E48C7
:102C40007E490BFB03F24EF62F3E02F500421214B2
:102C500048F8042B0AFB03F202F5004212144CF868
:102C6000042B09FB03F202F50042121447F8042B6F
:102C7000734A5A4302F50042121446F8042B714A73
:102C80005A43013302F50042B3F5807F4FEA2242F6
:102C900045F8042B43F34F0244F8042B6A4A02FB25
:102CA00003E249F2D04E4FEA224240F8042B674A31
:102CB00002FB03E24FEA224241F8042BC1D1644CEB
:102CC0000022D30025460021072940F2A680072ACA
:102CD0008CBF03F1780003F138000131013325F88E
:102CE000020B1029F0D101322034102AE9D1002042
:102CF000DFF888E1DFF88881DFF88891DFF888A1C4
:102D000044080025C300E4001FFA83FCA4B242017A
:102D1000C5F34F034F4F013519196344102D89B284
:102D20009BB201F5807603F1800B03F1C003B6B2CC
:102D300022F80830D653484F22F80A6022F807B02C
:102D400001F5A07B01F5C07122F80EB022F8091040
:102D500002F10202DCD101301028D1D10021DFF8CC
:102D60002C91DFF82C810846DFF828E1DFF828C134
:102D700083B209EB010708EB01060EEB010503F135
:102D800008020CEB010492B203F1400A27F8023B5F
:102D900026F802AB03F1800A25F802AB03F1C00A62
:102DA000013324F802AB9BB29342EDD108301031CD
:102DB0004028DDD1294D0023294C2A482A49DFF833
:102DC000DCE0DFF8DCC0294F294E0EFB03F2A2F550
:102DD0003202A2F57442121445F8042B0CFB03F2E4
:102DE000A2F56202A2F5A042121444F8042B07FBDC
:102DF00003F202F5B60202F5D04240F8042B06FBBE
:102E000003F2013302F53012B3F5807F02F5406220
:102E100041F8042BD9D1BDE8F08F072A8CBF03F10C
:102E20004000184659E700BF74B10020B4E100200B
:102E300074C5002074A9002074C9002074AD00205E
:102E4000D1D4FFFF30ABFFFFD194FFFF30EBFFFF8A
:102E5000B4DF002074D1002074D3002074C100209E
:102E600074B5002074BD002074B900203049FFFF04
:102E7000E8A7FFFF74CD0020B4E5002034D6002081
:102E800034D80020B4DA0020B4DC002034DF002085
:102E900074D5002034DA0020B4DE0020E86601009A
:102EA000A0C501000149002008F02EB81D1100083E
:102EB00008B5642006F026FAFBE7000000B54FF4E1
:102EC000407395B041F2883217480C93062306A947
:102ED00006930023CDE90D330F930B931393CDE9A4
:102EE000113305F015F8E0B9022301224FF48001F7
:102EF00004900D48CDE900331023CDE902320523BB
:102F00006A46CDE905134FF0407306A90F9341F2CD
:102F1000883305F0F8F8003818BF012015B05DF8C7
:102F200004FB0120FAE700BF68EC002010B594B064
:102F300010220021022409A819F094FD1422002176
:102F400002A819F08FFD1E4B192107A81A6C42F038
:102F500080521A641B6C03F080530093009B194B42
:102F60001A6842F440421A6001221B6803F440438D
:102F70000193019B4FF48033CDE907234FF4800385
:102F8000CDE90D434FF4C873CDE90F130723CDE905
:102F90001144139305F048F904F056FE0F23002066
:102FA0000621CDE902344FF4A053CDE904034FF4D8
:102FB000805302A8069305F02BFB14B010BD00BF90
:102FC000003802400070004038B50D4A00250D4C15
:102FD0000D4B20462562C4E900230123C4E90455B2
:102FE000C4E90253C4E9065503F0BFFA2946204656
:102FF00003F0E5FC29462046BDE8384003F005BD56
:103000000060004014EB0020FFEAC0002DE980487A
:10301000BBB01022002101242CA81C2619F022FD8F
:10302000032502F0BBF84FF00050CD4B40F20117E2
:10303000ADF8B040CDE92D03CA4B2CA82F9302F078
:10304000CBF84FF010438DF8B14000242CA82D93FD
:103050008DF8B8608DF8BB40ADF8BE4002F0BCF80A
:1030600002232CA88DF8BB508DF8B1301923ADF890
:10307000BE708DF8B83002F0AFF84FF040432CA886
:103080008DF8B86004262D938DF8B1508DF8BB40B3
:10309000ADF8BE4002F0A0F817232CA88DF8B1605F
:1030A0008DF8B8308DF8BB50ADF8BE7002F094F8D2
:1030B000304602F081F8BFF34F8FBFF36F8FAA4AFB
:1030C000C2F85042BFF34F8FBFF36F8F536943F481
:1030D00000335361BFF34F8FBFF36F8FC2F884404B
:1030E000BFF34F8FD2F8803043F6E074C3F3C900CA
:1030F000C3F34E335B0103EA0406014646EA8175D9
:103100000139C2F86052F9D2203B13F1200FF2D1FD
:10311000BFF34F8F536943F480335361BFF34F8F35
:10312000BFF36F8F914E01F09DFFFFF7FFFE14225A
:1031300000212CA819F096FC336B01224FF40041BA
:1031400043F010038A4801254FF4004733630024FD
:10315000336B4FF0030B4FF002084FF0040A03F0FB
:1031600010034FF480490393039B336B43F0020336
:103170003363336B03F002030493049B336B43F01C
:1031800040033363336B03F040030593059B336BBC
:1031900043F008033363336B03F008030693069B85
:1031A000336B43F004033363336B03F0040307937F
:1031B000079B336B43F480733363336B03F4807387
:1031C0000893089B336B43F020033363336B03F0A6
:1031D00020030993099B336B43F400733363336B10
:1031E00003F400730A930A9B336B43F08003336349
:1031F000336B03F080030B930B9B03F08DF80022DD
:10320000C0215C4803F088F8002240215A4803F0AE
:1032100083F800220221564803F07EF82CA9544876
:10322000CDE92C75CDE92E5502F0EAFEC0232CA97C
:103230005048CDE92C35CDE92E4B02F0E1FE40237C
:103240002CA94D48CDE92C35CDE92E4B02F0D8FE06
:103250002CA94748CDE92C85CDE92E4B02F0D0FEB4
:10326000336B2246052143F4800338203363336BEC
:103270004FF4807603F480030293029B01F03AFF3F
:10328000382001F069FF22460521392001F032FF84
:10329000392001F061FF39462246354803F03CF8F9
:1032A000142001F003FF39462A46314803F034F870
:1032B0000A2001F0FBFE2422214615A80E9419F0E5
:1032C000D1FB182221460FA82C4F19F0CBFB34223A
:1032D00021462CA819F0C6FB2C2221461EA819F065
:1032E000C1FB274B64220CA93846C7E900340523EB
:1032F000C7E902A5CDE90C2302F034FB15A9384635
:103300001D94CDE91554CDE91744CDE91944CDE913
:103310001B4402F053FD1C2121230F20CDE90F1384
:1033200019230FA9CDE911033846CDE9134402F062
:1033300008FD5146384602F0F3FC42F2107138465F
:1033400002F047FE4FF48071384602F0A8FA4FF4BD
:1033500000734FF4806C4FF4805E4FF4003211E044
:10336000120000030100010100ED00E000380240FE
:10337000002402400008024000140240F8EA002045
:10338000006C01404FF400213846CDF8E080CDE9D3
:103390002C634FF40063C74ECDE92EC34FF40053A6
:1033A000CDE930E34FF48033CDE932934FF48023FD
:1033B0004FF01009CDE934234FF08073CDE9361377
:1033C0002CA902F079FCC8231EA938462895CDE91E
:1033D0002039CDE91E44CDE9224ACDE92484CDE946
:1033E000264402F0F7FB2146384602F0E2FB214674
:1033F00034221EA819F036FBAF4ACA204FF0CB0C7E
:10340000B486C6F8208086F83640C6E900244FF41A
:10341000F172C6E9090240F2E3123046C6E90BC276
:10342000C6E90244C6E90445C6E9065804F0D6FADE
:10343000FF214FF4806EC8234FF4F07230461E9483
:103440002992ADF8A8408DF8AA40CDE923140521B2
:10345000CDE925E14FF04041CDE92128CDE9271301
:1034600022461EA9CDE91F3404F084FB3268384699
:10347000936923F00103936102F006FD294640465B
:1034800001F07EFB2823152221463846009402F0E5
:103490002EFD2CA9384636944FF44077CDE92C44C4
:1034A000CDE92E44CDE93044CDE93244CDE9344470
:1034B00002F002FC22464FF44871304604F088FBCB
:1034C00032687E4E4FF40061936930462B4393611E
:1034D00020227B4BB462CDF8B080C6E90034402393
:1034E000C6E904234FF4C073C6E906344FF4805391
:1034F000C6E9081307232CA9CDE92D3ACDE92F38C9
:10350000C6E9024ACDE9318B05F0FCFB4FF6FF72AC
:103510001EA930460F94CDE91E59CDE9205405F07F
:1035200011FC284601F0C2FD4FF6FF721EA930467D
:10353000CDE91E89CDE9205405F004FC08234FF69F
:10354000FF721EA93046CDE92034CDE91EB905F041
:10355000F9FB4FF40C734FF6FF721EA90F93304620
:103560000F9B20952193CDE91EA905F0EBFB40F2BE
:103570002A713046534E05F004FC43F2D2024FF05C
:10358000204330461A6003F580533462C6E90035A3
:103590001923C6E90299C6E90437C6E9064404F0CE
:1035A00063FC3297662741F288322CA930462C976B
:1035B000359431943994CDE93344CDE9374404F05E
:1035C000A7FC002840F0BB80992441F288322CA946
:1035D00030462C9404F09CFC002840F0B0804FF45E
:1035E000807341F288322CA9304632932C9704F034
:1035F0008FFC002840F0A38041F288322CA930468D
:103600002C9404F085FC0446002840F098804FF488
:103610007A7001F04BFD4FF480031EAA2CA923936E
:103620004FF480733046CDF88090329305232C936D
:103630004FF08073359341F28833CDE91E45CDE9D3
:10364000215404F060FD002879D14FF4807331904B
:1036500041F288322CA9329305232C934FF08073CA
:10366000CDE93300CDE93650CDE938003046359309
:1036700004F04EFC002862D141F2883215A9304690
:1036800004F0E2FC00285AD14FF480733590319059
:1036900041F288323293062339902CA92C93CDE93C
:1036A0003300CDE93700304604F032FC002846D123
:1036B0000AE000BFC0EB002000680140B4EC00202D
:1036C000400100A068EC002000232C4621954FF01B
:1036D000807522934FF480031EAA2CA923930523FF
:1036E0003046CDF880902C9341F288333595CDE962
:1036F0001E8804F008FD10BB4FF48073319041F236
:1037000088322CA932939DF854302C9443F0400316
:103710003595CDE93300CDE93640CDE93800304666
:103720008DF8543004F0F4FB48B941F2883215A901
:10373000304604F030FC10B9282001F0B7FC4FF4FB
:10374000807341F288322CA9B748329335232C93E9
:103750000023CDE93333359331933993CDE93733B2
:1037600004F0D6FBE0B941234FF0400C4FF0010EBE
:1037700022901EAA2CA9AC48CDE91EC31023CDE986
:10378000203E4FF4800323934FF44073329305237C
:103790002C934FF04073359341F2883304F0B3FC1F
:1037A000B7234FF440741E9300232494279323934C
:1037B0002B93CDE92533CDE92933FFF77FFB18BBE8
:1037C00041F288321EA9984804F0A2FBE0B9052313
:1037D0003190399015AA2C934FF0407315902CA975
:1037E0003593012332941693CDE9183010231793A3
:1037F0004FF48003CDE93300CDE937001A9341F24D
:103800008833894804F07FFC05234FF440764FF05D
:10381000407401252C93002341F288322CA9824860
:10382000329635943193CDE93333CDE93653CDE932
:10383000383304F06DFB00284FD141F288321EA9C5
:10384000794804F001FC002847D11523319041F25A
:1038500088322CA932962C933594CDE93300CDE9EA
:103860003650CDE93800704804F052FBA8BB41F255
:1038700088320DF179016C4804F0E6FB68BBFFF774
:103880001DFB50BB0223C02232962C9535943190FB
:10389000CDE93300CDE93630CDE9380092FAA2F215
:1038A00003219DF87930B2FA82F25F4803F03F03BA
:1038B00001FA02F22CA9134341F288328DF87930D3
:1038C00004F026FB48B941F288321EA9564804F09C
:1038D00062FB10B9282001F0E9FB05234FF4407684
:1038E0004FF0407401252C93002341F288322CA91B
:1038F0004D48329635943193CDE93333CDE9365383
:10390000CDE9383304F004FB00284BD141F2883272
:103910001EA9454804F098FB002843D11523319097
:1039200041F288322CA932962C933594CDE933009C
:10393000CDE93650CDE938003B4804F0E9FA88BBC0
:1039400041F288320DF17901374804F07DFB48BB24
:10395000FFF7B4FA30BB0223072232962C95359438
:103960003190CDE93300CDE93630CDE9380092FA17
:10397000A2F206219DF87930B2FA82F22A4823F0A9
:10398000070301FA02F22CA9134341F288328DF8A1
:10399000793004F0BDFA28B941F288321EA92248D4
:1039A00004F0F9FA4FF4407300241EAA1F4D32931D
:1039B000EC232CA91C482C934FF440633994339387
:1039C0004FF440532F934FF04073CDE934430A2313
:1039D000CDE937443193CDE91E4404F0E4FB144BA8
:1039E0002846C5E90E44C5E91044C5E91244C5E9B5
:1039F0000034C5E9024401F01FFE0121284601F010
:103A0000DDFEFFF7E1FAFCF716FE0A480A4B848058
:103A100003600123C0E90544036201F009FC074B80
:103A2000074803600EE000BF68EC0020E0E90020DA
:103A300000B00240BCE900200030024000100550F8
:103A400068EB002003F096F9FCF7F7FDFCF7F4FDB6
:103A500005F0C8FB0B4A21460B4805F0FDFB0B4B5C
:103A60000B4A214618600B4805F0F6FB0A4B0B4A3F
:103A7000214618600A4805F0EFFB0A4B186005F074
:103A8000CBFBFEE730F80108B12E0008B8E90020B2
:103A90000CF8010849060008B4E9002054F80108B0
:103AA00069250008E8EC00200268034B9A4201D126
:103AB00001F0EABA704700BF0010004070470000F4
:103AC0000D4B82B00F216FF001001A6C42F0805252
:103AD0001A641A6C02F080520092009A5A6C42F4F6
:103AE00080425A6400225B6C03F480430193019B83
:103AF00002B001F0FFBA00BF00380240026882B095
:103B0000084B9A420BD1D3F8302803F5006342F4F6
:103B100080521A631B6B03F480530193019B02B024
:103B2000704700BF003002400E4B07B502689A4252
:103B300015D1A3F5F04305215A201A6B42F4000277
:103B40001A6300221B6B03F400030193019B01F035
:103B5000D1FA5A2003B05DF804EB01F0FDBA03B0CE
:103B60005DF804FB00B0024010B588B00446142292
:103B7000002103A818F076FF2268154B9A4225D140
:103B800003F54C4303A913485A6C42F000625A648F
:103B90005A6C02F000620192019A1A6B42F40072B0
:103BA0001A6304221B6B03F400730293029B02232B
:103BB000CDE903230D23079302F022FA62200022AD
:103BC000052101F097FA622001F0C6FA08B010BD95
:103BD000006C014000240240F0B5ADB00446142250
:103BE000002103A818F03EFF9022002108A818F039
:103BF00039FF2268254B9A4246D14FF4003308A87A
:103C0000089304F0D3FD08B1FFF758FF204C1227AA
:103C100001260325236B03A91E4843F002032363F7
:103C2000236B03F002030093009B236B43F0080314
:103C30002363236B03F008030193019B8023CDE9E9
:103C400003370B23CDE90565079302F0D9F94FF44B
:103C5000805303A91048CDE903370423CDE9056556
:103C6000079302F0CDF9236C5F200022052143F079
:103C700080732364236C03F080730293029B01F032
:103C800039FA5F2001F068FA2DB0F0BD0060004005
:103C90000038024000040240000C0240026808B5EF
:103CA0000B4B9A4212D10B4A80210B48136C23F024
:103CB0008073136402F088FA08484FF4805102F0D0
:103CC00083FA5F20BDE8084001F054BA08BD00BF88
:103CD000006000400038024000040240000C024036
:103CE00037B5354B054602689A4262D1334B4FF4E3
:103CF0008061334C04205A6B4FF4000CDFF8CCE0A9
:103D000042F002025A6340225B6B03F0020301930C
:103D1000019B4FF09053C4E900E30023C4E9022360
:103D20004FF480522362C4E904124FF48042C4E984
:103D300006230323C4E909034FF400132046C4E912
:103D40000BC301F0E9FA08B1FFF7B8FE2C634FF09E
:103D500090531C4A4FF48061A56304201A4C4FF421
:103D6000000CC4E900234FF480520023C4E904127C
:103D70004FF480422362C4E90233C4E906230323DB
:103D8000C4E909034FF400132046C4E90BC301F052
:103D9000C3FA08B1FFF792FE6C63002205216C2084
:103DA000A56301F0A7F96C2003B0BDE8304001F035
:103DB000D3B903B030BD00BF001005500038024039
:103DC00038EA00202864024098EA0020106402408B
:103DD00010B5A6B004469022002102A818F042FEB9
:103DE0002268144B9A4222D10823072002934FF4F1
:103DF000C07307930223CDE90830012302A80C9376
:103E000004F0D4FC08B1FFF759FE0B4B58200321F6
:103E10005A6C42F080625A6400225B6C03F080634B
:103E20000193019B01F066F9582001F095F926B045
:103E300010BD00BF0068014000380240142200217C
:103E40002DE9F0418AB004460DEB020018F00AFE9D
:103E500022683A4B9A426ED1394B02250324092637
:103E60009A694FF0040805A9364842F0020200277B
:103E70009A619A6922F002029A619A6B42F00202F8
:103E80009A639A6B02F002020092009A1A6B42F057
:103E900010021A631A6B02F010020192019A1A6B57
:103EA00042F002021A631A6B02F002020292029AB4
:103EB0001A6B42F004021A631A6B02F004020392B6
:103EC000039A1A6B42F008021A631B6B03F0080393
:103ED0000493049BCDE90585CDE9084602F090F8EE
:103EE000402305A91848CDE905350123CDE907345C
:103EF0000A23099302F084F84FF4C06305A913481C
:103F00000996CDE90535CDE9077402F079F805A9E0
:103F10000D480996CDE90585CDE9077402F070F8E2
:103F20004FF4005305A90A480996CDE90535CDE9B6
:103F3000077402F065F80AB0BDE8F081001000A037
:103F40000038024000100240000402400008024015
:103F5000000C0240F0B5002387B003932A4B1E6883
:103F6000002E4FD10122022703250C241A6001A93B
:103F7000264B27489A6B42F001029A639B6B03F031
:103F800001030093009B4FF68373CDE90454CDE900
:103F9000013702F035F848F2331301A91D480594A2
:103FA000CDE90137CDE9036502F02AF84CF203733D
:103FB00001A919480594CDE90137CDE9036502F05F
:103FC0001FF840F2FF6301A914480594CDE90137B9
:103FD000CDE9036502F014F84FF63F0301A910483C
:103FE0000594CDE90137CDE9036502F009F84FF6F4
:103FF0002C7301A90B480594CDE90137CDE9036580
:1040000001F0FEFF07B0F0BDECEC002000380240EC
:104010000010024000180240000C02400020024044
:1040200000140240001C0240214B1A6C42F01002A6
:1040300070B51A6488B01B6C054601A903A803F08B
:1040400010030293029B04F093FB069B4BBB04F00E
:104050007FFB184E184B336040F2E733F360174B89
:10406000B0FBF3F3013B3046736000233361B36070
:10407000B36104F0F7FF044680B9304604F09AFEBD
:10408000044658B9362001F067F80F2D0DD82246A6
:104090002946362001F02EF8094B1D60204608B055
:1040A00070BD04F055FB4000D3E70124F6E700BFE4
:1040B00000380240F0EC00200010004040420F00A9
:1040C000680000207047FEE7FEE7FEE7FEE7704766
:1040D000014804F0B1BE00BFF0EC0020014801F03F
:1040E000EBB900BF38EA0020014801F0E5B900BF94
:1040F00098EA002008B500F0D3FF054A0549136887
:104100001B1A0B6010600448BDE8084003F0D5BCE2
:1041100040ED00203CED0020C0EB0020014801F004
:10412000C3BA00BFE0E90020014802F041BC00BF73
:1041300014EB0020014801F0CABC00BFF8EA0020DF
:10414000014803F067BB00BF68EB00200120704707
:1041500008B518F029FC162303604FF0FF3008BDA6
:1041600008B518F021FC16230360FEE770B50D4674
:1041700014460E46731B9C4201DC204670BDAFF313
:10418000008006F8010BF5E770B50D4614460E46A3
:10419000731B9C4201DC204670BD16F8010BAFF387
:1041A0000080F5E74FF0FF3070474FF400530020D8
:1041B0004B60704701207047002070470A4A116821
:1041C00008B5034609B909491160106869460344F6
:1041D0008B4206D918F0E8FB0C2303604FF0FF3048
:1041E00008BD1360FCE700BF44ED0020C04602207C
:1041F000704710B50446042118F076FB204610BD28
:10420000012908B506D0022908D059B900F0C4FB2D
:10421000006808BD00F0C0FB4068FAE700F0BCFB96
:104220008068F6E70020F4E7004870478CF8010842
:104230000220704713B5002451B1036801AA01940C
:104240008DF803409C680DF10303A04702B010BD38
:104250000846FBE7C0897047008A7047C0887047EE
:1042600080887047807A00F07F007047807AC009AC
:1042700070477047704700F598730868496803C332
:10428000704770477047416070477047064BC0F8F1
:104290004801C0F84C310023C0F8503100F5A2733A
:1042A000C0F84031704700BF4D430008012303723E
:1042B00070477047704710B441680346C2689B68F6
:1042C000541001EB6200D20748BF0A595DF8044B55
:1042D00048BFD358184743682BB183682BB9C068CF
:1042E00000F001007047184670470120704710B574
:1042F00004460C2118F0F8FA204610BD10B504460B
:10430000102118F0F1FA204610BD10B504464FF404
:10431000AE7118F0E9FA204610BD08B50AF096F81B
:10432000BDE808400AF0DCBC10B50446D0F84001F6
:1043300058B10368DB68984738B1D4F84001036886
:104340009B6898470023C4F8403110BD2DE9F14F18
:10435000D0E9555A0746A86803681B6A98479F2802
:1043600005D8464BA321464A464818F0EBFA686840
:1043700003681B6A98470F2803D8434BA421404A7F
:10438000F2E7E86803681B6A98470B2803D83F4B9D
:10439000A5213B4AE8E7DFF8FC900AF057F8043023
:1043A0000AF079F8D9F8000010B10368DB68984783
:1043B000D9F8000010B103681B689847DFF8D8806F
:1043C000D8F8000010B103685B699847D7F83C0142
:1043D00010B103685B689847D8F8000010B1036813
:1043E0001B689847D7F83C0110B103689B68984751
:1043F000E86800214FF0000B03685B6A9847244B84
:104400000446C0F804B00360594680F808B0A868B4
:1044100003685B6A9847064600F024FB68685946C3
:1044200003685B6A98470546314600F0F7FAC9F819
:104430000040C7F83C51C8F80060E5B12B1DCAF830
:10444000003030463368C5F808A0DB68F56398474C
:104450002B6828461B689847214630460BF08EFC97
:10446000236820461B699847236820465B6901B092
:10447000BDE8F04F18472B46E1E700BFB4F801084C
:1044800042F9010846FA01088DFA010830FB0108DB
:1044900040FC0108584402205444022070B50446F0
:1044A0000D4616460AF098F80E4B00211C600E4B84
:1044B000C4E955650D4D236028680D4BC4E95311BF
:1044C000C4E951310368C4E94F119B6898472B68D0
:1044D00093F876200AB1D86C00B9986811F0E1FA27
:1044E000204670BD64440220F4FB010818440220F9
:1044F000DCFB0108064BC0F84801C0F84C31002332
:10450000C0F8503100F5A273C0F84031704700BFC9
:104510004D430008406A7047806A704770478B8837
:10452000C069DB0A0A6850F823001044704710B5D0
:10453000C2B1137BB3B1547BD27A240204F4E06499
:104540001443026A98B202EB840213888B4202D1B0
:1045500092F9020010BD05D80138043280B200285B
:10456000F3D1F7E70020F5E710B504462C2118F049
:10457000BBF9204610BD000030B58BB00446BDF835
:1045800060500895BDF85C5007959DF85050069511
:104590009DF84C5005959DF8485004959DF8445061
:1045A00003959DF8405002959DF83C500195BDF84B
:1045B000385000950BF03CF8064B20462360159BC5
:1045C000E361169B2362199B63621A9BA3620BB083
:1045D00030BD00BF64FC01087047704770477047EA
:1045E00070477047704710B50446A02118F07CF959
:1045F000204610BD036870B504461B6B15469847EE
:104600002368204629465B6BBDE8704018470000D0
:104610002DE9F341044600250BF004FA304B264601
:10462000E5632A46294646F8403B30462D4B04F1C7
:104630000408256604F16C07A566C4F8945084F854
:104640009850C4E910354FF48073A4F86430FF2308
:1046500084F8663040F20113A4F89030224BE366F0
:104660004FF6FF73C4E91255A4F89A30A4F89C30B1
:1046700084F89E30C4E91455C4E91655C4E91C55A4
:10468000C4E91E55C4E92055C4E92255FFF7B2FF1D
:1046900030464FF44871FDF7F3FC30464FF4F071AB
:1046A000FDF7F0FC4FF07F4331464046A36607F02C
:1046B00011FC3846BE22DC21FFF79CFF012301AA32
:1046C00069463846ADF80430ADF8005008F0D8FD22
:1046D0004046394607F0FEFB204602B0BDE8F081B7
:1046E000C4FC01089807020800080208704700008F
:1046F00030B5164D8FB02C78BFF35B8F14F00104EA
:1047000020D1284618F0F2F8E0B13F2301221049E9
:104710000993104B10480893104B0A940594CDE967
:1047200006430423CDE903320A23CDE90B44009369
:10473000CDE90144FFF720FF094818F021F9284688
:1047400018F0E0F804480FB030BD00BF48ED00207D
:1047500078780190E80C02084CED0020F40C020877
:10476000ED4600087047000030B5164D8FB02C782C
:10477000BFF35B8F14F0010420D1284618F0B6F87F
:10478000E0B13F23012210490993104B10480893D0
:10479000104B0A940594CDE906430423CDE9033276
:1047A0001423CDE90B440093CDE90144FFF7E4FE67
:1047B000094818F0E5F8284618F0A4F804480FB0A6
:1047C00030BD00BF78ED002088780190EC0C020825
:1047D0007CED0020F80C02086547000870470000D7
:1047E00030B5164D8FB02C78BFF35B8F14F00104F9
:1047F00020D1284618F07AF8E0B13F230122104971
:104800000993104B10480893104B0A940594CDE976
:1048100006430423CDE903322823CDE90B4400935A
:10482000CDE90144FFF7A8FE094818F0A9F8284689
:1048300018F068F804480FB030BD00BFA8ED0020A4
:1048400098780190F00C0208ACED0020FC0C0208F6
:10485000DD47000800207047002070470EB403B504
:1048600003AB002153F8042B01930AF009FD02B0B9
:104870005DF804EB03B070470CB407B504AB53F814
:10488000042B01930AF0FCFC03B05DF804EB02B0CA
:1048900070470000436C10B5044673B3038F2BB907
:1048A000184BC521184A194818F04CF8C38E00EB74
:1048B00043035B8C0BB30BF02DFF238F012B03D82D
:1048C000134BCB21134AEEE7E28E40F63F10531C08
:1048D0009BB2092B194688BFA3F10A0104EB4101E1
:1048E000498C814209D10A2B04EB420228BF0023E4
:1048F000508C04EB4303588451842046BDE810409B
:104900000BF00ABEF0FC0108F9FC0108A4FD010847
:10491000EEFD0108FCFD01080BF0C7BD38B518BB62
:10492000124B13481B681349B3B11A689C681A44A8
:104930001C4402605A681A440A600F4B00221A8015
:1049400000F02AF8054600F025F80C4B1C600C4BD3
:104950001D600C4B188007E00B4B03600B4B0B608A
:104960000B4B1C68002CE8D138BD00BFD8ED0020EF
:10497000DCED0020E0ED0020E4ED002068440220A2
:10498000704402206C440220AC780190A878019019
:10499000B47801900020704700487047E8ED00208F
:1049A00010B5054CFFF7E0FE2060FFF719FF6060CF
:1049B000FFF79EFEA06010BDE8ED0020704710B527
:1049C00004464FF4AE7117F08FFF204610BD10B5AE
:1049D0000446D0F8580100F012F82046BDE8104017
:1049E00009F0B6BD10B50446FFF758FD014B20464F
:1049F000236010BDD8FE0108002202607047704796
:104A0000704704387047704710B50446102117F0FE
:104A10006BFF204610BDA0F10400F5E70022C16045
:104A20008260044A10B502F108042032046042603A
:104A300010BD00BF1CFF010870470000034B10B5FC
:104A400004460360FFF7CDFD204610BD4CFF010872
:104A500010B50446FFF7F2FFA021204617F044FFEF
:104A6000204610BD10B50446FFF7D2FD014B20468D
:104A7000236010BD4CFF0108FFF7B4BD7047002054
:104A8000704710B50446FBF7A2FEA821E0B2FBF781
:104A9000BBFE80B210BD000013B500240221C0B2DD
:104AA0008DF80740FBF7B0FE8DF807009DF8073042
:104AB00003F00F038DF807309DF80730022B01D962
:104AC0008DF807409DF80720034B9DF807005A70AA
:104AD00000229A7002B010BDF6ED002073B5154C9F
:104AE00015460E46A37862789A421FD903B3012B6C
:104AF00014BF002109210423C0B20DEB0302FBF710
:104B0000A1FE9DF804309DF805201B0203F470639C
:104B100013439DF8072033809DF806301B0203F4F1
:104B2000706313432B80A3780133A37002B070BD70
:104B30000321E0E7F6ED00200122A421C0B2FBF73B
:104B400047BE0022A421C0B2FBF742BEFFF7F9BF67
:104B500070470000094B10B41A7890420AD0597877
:104B6000884207D00AB129B9012298545DF8044B54
:104B7000FBF72DBE5DF8044B704700BFF4ED00203D
:104B800038B504460D460020C949FCF7A5F9C949C6
:104B90000320FCF7A1F9C8490020FCF79DF9C7499B
:104BA0000220FCF799F9C4490020FCF795F9C449A3
:104BB0000020FCF791F90A20FCF78CF9C14900208C
:104BC000FCF78AF9C0490020FCF786F90A20FCF7B7
:104BD00081F9BE490020FCF77FF9BD490020FCF7B0
:104BE0007BF9BC490020FCF777F9BB490020FCF7B2
:104BF00073F9BA490020FCF76FF9B9490020FCF7B6
:104C00006BF9AB490020FCF767F9B6490020FCF7C7
:104C100063F9B5490020FCF75FF9B4490020FCF7BF
:104C20005BF9B3490020FCF757F9B2490020FCF7C3
:104C300053F9B1490020FCF74FF9B0490020FCF7C7
:104C40004BF9AF490020FCF747F9A3490020FCF7D6
:104C500043F997490020FCF73FF9AA490220FCF7E5
:104C60003BF9A9490020FCF737F9A8490020FCF7D7
:104C700033F9A7490020FCF72FF9A6490020FCF7DB
:104C80002BF9A5490020FCF727F9A4490020FCF7DF
:104C900023F995490020FCF71FF9A1490020FCF7F2
:104CA0001BF993490020FCF717F99E490020FCF7F7
:104CB00013F99D490020FCF70FF99C490220FCF7ED
:104CC0000BF97D490020FCF707F999490620FCF70C
:104CD00003F998490020FCF7FFF897490E20FCF7EC
:104CE000FBF896490020FCF7F7F895490E20FCF7F1
:104CF000F3F894490020FCF7EFF893490A20FCF7F9
:104D0000EBF892490020FCF7E7F891490020FCF706
:104D1000E3F869490020FCF7DFF88E490A20FCF728
:104D2000DBF88D490020FCF7D7F88C490F20FCF701
:104D3000D3F880490020FCF7CFF889490F20FCF711
:104D4000CBF87E490020FCF7C7F886490A20FCF71B
:104D5000C3F87C490020FCF7BFF883490F20FCF71B
:104D6000BBF87A490020FCF7B7F880490F20FCF720
:104D7000B3F87F490020FCF7AFF87E490A20FCF722
:104D8000ABF87D490020FCF7A7F87C490A20FCF726
:104D9000A3F849490020FCF79FF879490A20FCF75D
:104DA0009BF86D490020FCF797F876490F20FCF737
:104DB00093F860490020FCF78FF873490F20FCF747
:104DC0008BF85E490020FCF787F870490A20FCF751
:104DD00083F85C490020FCF77FF86D490F20FCF751
:104DE0007BF85A490020FCF777F86A490F20FCF756
:104DF00073F83D490020FCF76FF867490020FCF785
:104E00006BF866490020FCF767F865490020FCF75D
:104E100063F864490020FCF75FF863490020FCF761
:104E20005BF823490020FCF757F860490320FCF7A2
:104E300053F81F490020FCF74FF81D490020FCF7EC
:104E40004BF85B491020FCF747F819490020FCF7A4
:104E500043F858491020FCF73FF800205649FCF76A
:104E60003BF87820FCF736F8002C00F0C780022CC5
:104E700003D152490020FCF72FF8012D0BD15049E6
:104E80000020FCF729F84F490420FCF725F84E498B
:104E90000420FCF721F84D490020FCF71DF84C498F
:104EA0000020FCF719F84B490020FCF715F893E0B7
:104EB00078FF0108DEFF01088EFF01086400020888
:104EC000A4FF0108BAFF0108D0FF0108D6FF0108BE
:104ED000D8FF0108DAFF0108DCFF01087AFF0108AA
:104EE0007CFF01087EFF010880FF010882FF0108A6
:104EF00084FF010886FF010888FF01088AFF010876
:104F00008CFF0108E200020890FF010892FF0108EF
:104F100094FF010896FF010898FF01089AFF010815
:104F20009CFF01089EFF0108A0FF0108E5000208A0
:104F3000E8000208A2FF0108EF000208A6FF01082E
:104F4000FE000208A8FF0108E2FF0108AAFF01080D
:104F5000C8FF0108EDFF0108ACFF0108F8FF0108D8
:104F600008000208180002082300020833000208A3
:104F7000AEFF010843000208B0FF01084E0002081E
:104F8000590002086700020877000208870002083B
:104F900092000208A2000208CAFF0108CCFF010823
:104FA000CEFF0108D2FF0108D4FF0108B2000208B9
:104FB000C0000208D1000208B2FF0108B4FF0108D6
:104FC000B8FF0108B6000208BB000208BCFF0108D8
:104FD000BEFF0108C0FF01080A490020FBF77CFF63
:104FE00009490020FBF778FF08490020FBF774FF10
:104FF00007490020FBF770FF002038BD0549204617
:1050000039E700BFC2FF0108C4FF010878FF0108AB
:10501000C6FF0108B6FF01080F490020D1F888300B
:1050200043F47003C1F888300C4B1A6842F0010257
:105030001A6098601A6822F0847222F480321A6032
:10504000074A5A601A6822F480221A60D8604FF02A
:1050500000638B60704700BF00ED00E00038024045
:1050600010300024074A032008B5136843F4807306
:10507000136000F02DF80020FEF7D6FFFEF720FDAC
:10508000002008BD003C0240034A044B11681B7815
:105090000B441360704700BFFCED0020640000204B
:1050A000014B1868704700BFFCED002038B504467E
:1050B000FFF7F6FF0546631C1EBF044B1B78E41880
:1050C000FFF7EEFF431BA342FAD338BD6400002074
:1050D00007490302CA6803F4E06322F4E0621204A1
:1050E000120C134343F0BF6343F40033CB607047AB
:1050F00000ED00E0164B30B5DC68C4F30224C4F1C7
:105100000705231D042D28BF0425062B4FF0FF3370
:105110008CBF033C002403FA05F5002803FA04F3CE
:1051200021EA050122EA030201FA04F141EA02033D
:105130004FEA0313DBB206DB00F1604000F561408B
:1051400080F8003330BD00F00F00024A1354F9E735
:1051500000ED00E014ED00E0002808DB4209012327
:1051600000F01F0003FA00F0014B43F822007047E3
:1051700000E100E000280DDB4309012200F01F00E0
:10518000203302FA00F0044A42F82300BFF34F8FA5
:10519000BFF36F8F704700BF00E100E0BFF35F8F88
:1051A000044B5A6A22F480325A620022C3F89420D7
:1051B000704700BF00ED00E0064B40F00100C3F86F
:1051C00094005A6A42F480325A62BFF34F8FBFF3A1
:1051D0006F8F704700ED00E04378144A10B5C2F8B5
:1051E00098300178E9B14368C2F89C30C37A047BF7
:1051F0001B0643EA04730B43817A43EAC143417BB4
:1052000043EA8143817B43EA4143C17B43EA014353
:10521000417A43EA0123017A43EA4103C2F8A0300C
:1052200010BDC2F89C10C2F8A010F9E700ED00E034
:1052300010B5044608B9012010BD437F03F0FF02FA
:1052400013B90277FEF75AFC022363772379E3B997
:105250002368134A5A619A6822F018029A606279A8
:105260002368D2B94FF0FF321A6100209A68616951
:1052700022F060020A43A1699A609A6822F08002D3
:105280000A439A6001236377D6E7D4E902122046E5
:1052900000F008F80028E2D0CDE72269E4E700BF7B
:1052A000B71DC1041F2310B5013B1CD321FA03F421
:1052B000E407F9D5102A12D004D83AB1082A10D040
:1052C00001200BE0182AFBD1062BF9D800684161B8
:1052D000836823F018031A438260002010BD072B57
:1052E000F3E70F2BF1E7002AEAD1EFE70368024664
:1052F0001820D9B21039B1FBF0F010B5054C5F2978
:10530000205CD06523F47F7020F0030088BF043058
:10531000906510BD2501020870B50446FFF7C0FE78
:105320000546002C73D00223226884F83530002310
:1053300084F83430136823F00103136021680B688C
:10534000D8072FD40B68334DA0691D40D4E9012341
:105350001343E26813432269134362691343E2690A
:1053600003431343226A1343626A042A43EA050390
:1053700002BFD4E90B5635432B43042A0B604B691B
:1053800023F0070343EA020333D1A26AE56A134319
:105390007DB390B9012A21D032F0020229D1EA016D
:1053A00027D51EE0FFF77CFE401B0528C6D9202329
:1053B0000320636584F8350070BDB0F5005F14D13B
:1053C000032A16D801A050F822F000BFE3530008CA
:1053D0009F530008E3530008DD530008B5F1C07F78
:1053E00007D1402301206365E4E7022AF9D9032AA3
:1053F000D5D04B612046FFF779FFE26D3F23934004
:10540000836000200123606584F83530D4E70120F3
:10541000D2E700BF3F8010E070B590F83440866D51
:10542000012C34D00124002580F8344090F8354018
:10543000012C4FF0020428D180F8354004684565FE
:10544000256825F48025256063608368402B19D189
:10545000A260E160C26D3F239340B360236843F0D4
:1054600016032360636943F080036361036C1BB11F
:10547000236843F0080323602368002043F00103FE
:10548000236070BDA160E260E4E780F83450022040
:10549000F7E790F83530022B03D0802343650120D5
:1054A00070470268052380F835300020136823F028
:1054B00001031360704700000023F7B50193082231
:1054C0005B4B0446856D1F68C36D2E689A4032425F
:1054D0000CD001680868400708D5086820F004006F
:1054E0000860AA60626D42F00102626501229A4082
:1054F000324208D021684969090604D5AA60626D64
:1055000042F00202626504229A40324208D02168C9
:105510000968880704D5AA60626D42F004026265DA
:1055200010229A40324210D02368196809070CD51E
:10553000AA601A68500337D51B68190301D4236C7D
:1055400000E0A36C0BB120469847E16D20228A4011
:1055500032423AD023681868C60636D5AA6094F855
:105560003520052A1A6827D122F016021A605A69D6
:1055700022F080025A61226C0AB9A26C1AB11A6830
:1055800022F008021A603F238B40AB60012384F8AD
:105590003530002384F83430236D002B45D020466D
:1055A00003B0BDE8F04018471A68D205C7D41A689E
:1055B00022F008021A60C2E7500327D51B681903BE
:1055C00031D4636C0BB120469847636D6BB3636D48
:1055D000DA0719D54FF416532268B7FBF3F7052302
:1055E00084F83530136823F001031360019B013305
:1055F000BB42019302D81368DB07F7D4012384F878
:105600003530002384F83430E36CC6E71A6812F4AE
:10561000807208D1196821F010011960012384F803
:10562000342084F83530E36BCCE703B0F0BD00BF25
:1056300060000020406D704710B5044680B390F8BC
:10564000513003F0FF021BB980F85020FEF76CFACE
:105650000223616884F8513023681A6822F44032CA
:105660000A43A1681A605A6B22F007020A43E168F4
:105670005A631A6C22F47F5222F03F020A431A64E2
:10568000596BD4E9040221F44011520542EA005258
:1056900000200A435A630123606584F8513010BD2D
:1056A0000120FCE770477047036870B55E680446E8
:1056B0001D68F20714D5E90512D51A6822F4807224
:1056C0001A60426D42F00102426501229A60042391
:1056D00080F85130002380F85030C36903B19847F7
:1056E000B20616D5AB0414D523681A6822F400520A
:1056F0001A6020229A60636D43F0020363650423FD
:1057000084F85130002384F85030E3690BB120460F
:105710009847300716D5290514D523681A6822F44E
:1057200000621A6008229A60636D43F004036365A7
:10573000042384F85130002384F85030E3690BB11E
:105740002046984772070BD56B0509D5236820467C
:105750001A6822F480621A6004229A60FFF7A2FF9E
:10576000B00714D5A90512D523681A6822F400726F
:105770001A6002229A60636D6365012384F85130D8
:10578000002384F85030A3690BB120469847F206F5
:1057900013D5EB0411D5236820461A6822F48052F1
:1057A0001A6010229A60636D6365012384F851309A
:1057B000002384F85030FFF776FF70BD70B590F885
:1057C0005030012B4FF0020331D01824012280F811
:1057D000513004FB010480F85020226BD4E90956B3
:1057E0001305626B43EA06431B4E2B43093D43EA14
:1057F0004253012DE26A96BF02F07F4243EA026300
:1058000013430268A9B9546A012D04EA060443EA65
:1058100004035362036A936103D8C36A23F07F438E
:105820009362012380F85130002380F850301846ED
:1058300070BDD469012D04EA060443EA0403D36170
:105840004FF0180303FB01010B6A1361E9D8CB6A1F
:1058500023F07F431362E4E7F0FFCC002DE9F04131
:1058600007460D4614461E46FFF71AFC80463B6865
:105870005A6FD2070AD544EA06240699002044EA62
:10588000014444EA8514DC66BDE8F081FFF708FCBA
:10589000A0EB0800B0F57A7FE9D90320F4E7037C98
:1058A000012B5CD000220368C3F8C420C3F8C820D1
:1058B000CA07816107D5D3F8C4206FEA12426FEAA4
:1058C0000242C3F8C4208A0705D5D3F8C42042F4A5
:1058D000F812C3F8C4204A0705D5D3F8C82042F00F
:1058E0000102C3F8C8200A0705D5D3F8C82042F042
:1058F0000202C3F8C820CA0605D5D3F8C82042F072
:105900000C02C3F8C8208A0605D5D3F8C82042F097
:105910001002C3F8C8204A0605D5D3F8C82042F0C3
:105920002002C3F8C8200A0605D5D3F8C82042F0E3
:105930004002C3F8C820CA0505D5D3F8C82042F0F4
:105940008002C3F8C8208A0505D5D3F8C82042F4E0
:10595000F852C3F8C8200023037418467047022089
:105960007047000073B50D460446002800F0A9807A
:10597000437C0BB9FEF7F8F803236374002300930C
:105980002368D3F8302442F08072C3F83024D3F86F
:10599000303403F080730093009BFFF781FB0646D1
:1059A0002268D2F80C34D9047AD5D2F8303423F4F2
:1059B0005E3323F4FE73C2F83034D2F83014D5E9E4
:1059C0000003DB0243EA8003A86843EA00430120A6
:1059D0000B43C2F8303400230193D2F8303443F043
:1059E0000103C2F83034D2F8303403F001030193DC
:1059F000019BFFF75BFBFFF753FB06462368D3F8D9
:105A00000C24D20556D5D3F8A02046F2A810616820
:105A100042F00602C3F8A020D3F8942022F003023B
:105A2000C3F89420D3F894200A43E16842F00102BD
:105A3000C3F89420D3F8A42022F00302C3F8A420D2
:105A4000D3F8A4200A43A168C3F8A4209A6822F0DE
:105A5000FF029A609A680A431B499A606A68012AA1
:105A600038BF01224A43A96801F003018A4029682E
:105A700041430020B2FBF1F2D3F8181421F03F01AA
:105A8000C3F81814D3F818140A43C3F81824C3F839
:105A9000C400C3F8C80001236061A061637407E01B
:105AA000FFF7FEFA801BB0F57A7F7FF679AF03200F
:105AB00002B070BDFFF7F4FA801BB0F57A7F9DD974
:105AC000F5E70120F4E700BF00093D0070470368D7
:105AD000D3F80C24D10710B5044608D5D3F8082410
